{
  "contractName": "TokenSale",
  "abi": [
    {
      "inputs": [
        {
          "internalType": "uint256",
          "name": "_startTime",
          "type": "uint256"
        },
        {
          "internalType": "uint256",
          "name": "_softCap",
          "type": "uint256"
        },
        {
          "internalType": "uint256",
          "name": "_hardCap",
          "type": "uint256"
        },
        {
          "internalType": "uint256",
          "name": "_minBuy",
          "type": "uint256"
        },
        {
          "internalType": "uint256",
          "name": "_maxBuy",
          "type": "uint256"
        },
        {
          "internalType": "address payable",
          "name": "_wallet",
          "type": "address"
        },
        {
          "internalType": "string",
          "name": "_tokenName",
          "type": "string"
        },
        {
          "internalType": "string",
          "name": "_symbol",
          "type": "string"
        }
      ],
      "stateMutability": "nonpayable",
      "type": "constructor"
    },
    {
      "anonymous": false,
      "inputs": [
        {
          "indexed": true,
          "internalType": "address",
          "name": "owner",
          "type": "address"
        },
        {
          "indexed": true,
          "internalType": "address",
          "name": "spender",
          "type": "address"
        },
        {
          "indexed": false,
          "internalType": "uint256",
          "name": "value",
          "type": "uint256"
        }
      ],
      "name": "Approval",
      "type": "event"
    },
    {
      "anonymous": false,
      "inputs": [
        {
          "indexed": true,
          "internalType": "address",
          "name": "previousOwner",
          "type": "address"
        },
        {
          "indexed": true,
          "internalType": "address",
          "name": "newOwner",
          "type": "address"
        }
      ],
      "name": "OwnershipTransferred",
      "type": "event"
    },
    {
      "anonymous": false,
      "inputs": [
        {
          "indexed": true,
          "internalType": "address",
          "name": "from",
          "type": "address"
        },
        {
          "indexed": true,
          "internalType": "address",
          "name": "to",
          "type": "address"
        },
        {
          "indexed": false,
          "internalType": "uint256",
          "name": "value",
          "type": "uint256"
        }
      ],
      "name": "Transfer",
      "type": "event"
    },
    {
      "anonymous": false,
      "inputs": [
        {
          "indexed": true,
          "internalType": "address",
          "name": "account",
          "type": "address"
        },
        {
          "indexed": false,
          "internalType": "uint256",
          "name": "amount",
          "type": "uint256"
        },
        {
          "indexed": false,
          "internalType": "uint8",
          "name": "blockId",
          "type": "uint8"
        }
      ],
      "name": "Vesting",
      "type": "event"
    },
    {
      "inputs": [
        {
          "internalType": "address",
          "name": "owner",
          "type": "address"
        },
        {
          "internalType": "address",
          "name": "spender",
          "type": "address"
        }
      ],
      "name": "allowance",
      "outputs": [
        {
          "internalType": "uint256",
          "name": "",
          "type": "uint256"
        }
      ],
      "stateMutability": "view",
      "type": "function"
    },
    {
      "inputs": [
        {
          "internalType": "address",
          "name": "spender",
          "type": "address"
        },
        {
          "internalType": "uint256",
          "name": "amount",
          "type": "uint256"
        }
      ],
      "name": "approve",
      "outputs": [
        {
          "internalType": "bool",
          "name": "",
          "type": "bool"
        }
      ],
      "stateMutability": "nonpayable",
      "type": "function"
    },
    {
      "inputs": [
        {
          "internalType": "address",
          "name": "account",
          "type": "address"
        }
      ],
      "name": "balanceOf",
      "outputs": [
        {
          "internalType": "uint256",
          "name": "",
          "type": "uint256"
        }
      ],
      "stateMutability": "view",
      "type": "function"
    },
    {
      "inputs": [],
      "name": "decimals",
      "outputs": [
        {
          "internalType": "uint8",
          "name": "",
          "type": "uint8"
        }
      ],
      "stateMutability": "view",
      "type": "function"
    },
    {
      "inputs": [
        {
          "internalType": "address",
          "name": "spender",
          "type": "address"
        },
        {
          "internalType": "uint256",
          "name": "subtractedValue",
          "type": "uint256"
        }
      ],
      "name": "decreaseAllowance",
      "outputs": [
        {
          "internalType": "bool",
          "name": "",
          "type": "bool"
        }
      ],
      "stateMutability": "nonpayable",
      "type": "function"
    },
    {
      "inputs": [
        {
          "internalType": "address",
          "name": "spender",
          "type": "address"
        },
        {
          "internalType": "uint256",
          "name": "addedValue",
          "type": "uint256"
        }
      ],
      "name": "increaseAllowance",
      "outputs": [
        {
          "internalType": "bool",
          "name": "",
          "type": "bool"
        }
      ],
      "stateMutability": "nonpayable",
      "type": "function"
    },
    {
      "inputs": [],
      "name": "name",
      "outputs": [
        {
          "internalType": "string",
          "name": "",
          "type": "string"
        }
      ],
      "stateMutability": "view",
      "type": "function"
    },
    {
      "inputs": [],
      "name": "owner",
      "outputs": [
        {
          "internalType": "address",
          "name": "",
          "type": "address"
        }
      ],
      "stateMutability": "view",
      "type": "function"
    },
    {
      "inputs": [],
      "name": "renounceOwnership",
      "outputs": [],
      "stateMutability": "nonpayable",
      "type": "function"
    },
    {
      "inputs": [],
      "name": "symbol",
      "outputs": [
        {
          "internalType": "string",
          "name": "",
          "type": "string"
        }
      ],
      "stateMutability": "view",
      "type": "function"
    },
    {
      "inputs": [],
      "name": "totalSupply",
      "outputs": [
        {
          "internalType": "uint256",
          "name": "",
          "type": "uint256"
        }
      ],
      "stateMutability": "view",
      "type": "function"
    },
    {
      "inputs": [
        {
          "internalType": "address",
          "name": "recipient",
          "type": "address"
        },
        {
          "internalType": "uint256",
          "name": "amount",
          "type": "uint256"
        }
      ],
      "name": "transfer",
      "outputs": [
        {
          "internalType": "bool",
          "name": "",
          "type": "bool"
        }
      ],
      "stateMutability": "nonpayable",
      "type": "function"
    },
    {
      "inputs": [
        {
          "internalType": "address",
          "name": "sender",
          "type": "address"
        },
        {
          "internalType": "address",
          "name": "recipient",
          "type": "address"
        },
        {
          "internalType": "uint256",
          "name": "amount",
          "type": "uint256"
        }
      ],
      "name": "transferFrom",
      "outputs": [
        {
          "internalType": "bool",
          "name": "",
          "type": "bool"
        }
      ],
      "stateMutability": "nonpayable",
      "type": "function"
    },
    {
      "inputs": [
        {
          "internalType": "address",
          "name": "newOwner",
          "type": "address"
        }
      ],
      "name": "transferOwnership",
      "outputs": [],
      "stateMutability": "nonpayable",
      "type": "function"
    },
    {
      "inputs": [
        {
          "internalType": "uint256",
          "name": "_amount",
          "type": "uint256"
        },
        {
          "internalType": "address",
          "name": "_token",
          "type": "address"
        },
        {
          "internalType": "address",
          "name": "_to",
          "type": "address"
        }
      ],
      "name": "withdrawERC20",
      "outputs": [],
      "stateMutability": "nonpayable",
      "type": "function"
    },
    {
      "inputs": [],
      "name": "endSale",
      "outputs": [
        {
          "internalType": "bool",
          "name": "",
          "type": "bool"
        }
      ],
      "stateMutability": "nonpayable",
      "type": "function"
    },
    {
      "inputs": [
        {
          "internalType": "address",
          "name": "account",
          "type": "address"
        },
        {
          "internalType": "uint256",
          "name": "amount",
          "type": "uint256"
        },
        {
          "internalType": "uint8",
          "name": "_block",
          "type": "uint8"
        }
      ],
      "name": "issueNonSaleTokens",
      "outputs": [],
      "stateMutability": "nonpayable",
      "type": "function"
    },
    {
      "inputs": [
        {
          "internalType": "uint8",
          "name": "_block",
          "type": "uint8"
        }
      ],
      "name": "buyTokens",
      "outputs": [],
      "stateMutability": "payable",
      "type": "function"
    },
    {
      "inputs": [
        {
          "internalType": "uint8",
          "name": "_block",
          "type": "uint8"
        }
      ],
      "name": "claim",
      "outputs": [],
      "stateMutability": "nonpayable",
      "type": "function"
    },
    {
      "inputs": [
        {
          "internalType": "address",
          "name": "account",
          "type": "address"
        }
      ],
      "name": "balanceOfBlock",
      "outputs": [
        {
          "internalType": "uint256",
          "name": "",
          "type": "uint256"
        },
        {
          "internalType": "uint256",
          "name": "",
          "type": "uint256"
        }
      ],
      "stateMutability": "view",
      "type": "function"
    },
    {
      "inputs": [
        {
          "internalType": "address payable",
          "name": "account",
          "type": "address"
        },
        {
          "internalType": "uint256",
          "name": "amount",
          "type": "uint256"
        }
      ],
      "name": "referalReward",
      "outputs": [],
      "stateMutability": "nonpayable",
      "type": "function"
    },
    {
      "inputs": [
        {
          "internalType": "address payable",
          "name": "account",
          "type": "address"
        }
      ],
      "name": "uniswapEthWithdraw",
      "outputs": [],
      "stateMutability": "nonpayable",
      "type": "function"
    }
  ],
  "bytecode": "0x60806040523480156200001157600080fd5b5060405162003e6838038062003e6883398181016040526101008110156200003857600080fd5b81019080805190602001909291908051906020019092919080519060200190929190805190602001909291908051906020019092919080519060200190929190805160405193929190846401000000008211156200009557600080fd5b83820191506020820185811115620000ac57600080fd5b8251866001820283011164010000000082111715620000ca57600080fd5b8083526020830192505050908051906020019080838360005b8381101562000100578082015181840152602081019050620000e3565b50505050905090810190601f1680156200012e5780820380516001836020036101000a031916815260200191505b50604052602001805160405193929190846401000000008211156200015257600080fd5b838201915060208201858111156200016957600080fd5b82518660018202830111640100000000821117156200018757600080fd5b8083526020830192505050908051906020019080838360005b83811015620001bd578082015181840152602081019050620001a0565b50505050905090810190601f168015620001eb5780820380516001836020036101000a031916815260200191505b5060405250505081816000620002066200037660201b60201c565b9050806000806101000a81548173ffffffffffffffffffffffffffffffffffffffff021916908373ffffffffffffffffffffffffffffffffffffffff1602179055508073ffffffffffffffffffffffffffffffffffffffff16600073ffffffffffffffffffffffffffffffffffffffff167f8be0079c531659141344cd1fd0a4f28419497f9722a3daafe3b4186f6b6457e060405160405180910390a3508160049080519060200190620002bc92919062000ace565b508060059080519060200190620002d592919062000ace565b506012600660006101000a81548160ff021916908360ff1602179055505050876007819055508660098190555085600a8190555084600c8190555083600d8190555082601060016101000a81548173ffffffffffffffffffffffffffffffffffffffff021916908373ffffffffffffffffffffffffffffffffffffffff160217905550620003686200037e60201b60201c565b505050505050505062000b7d565b600033905090565b604051806101200160405280620f424081526020016000815260200162278d00815260200161014e815260200161271081526020016352f325eb815260200164e8d4a510008152602001670214e8348c4f00008152602001600081525060116000600160ff168152602001908152602001600020600082015181600001556020820151816001015560408201518160020155606082015181600301556080820151816004015560a0820151816005015560c0820151816006015560e082015181600701556101008201518160080155905050604051806101200160405280621e84808152602001600081526020016212750081526020016102cb8152602001612710815260200163b19279cb815260200164e8d4a5100081526020016702c68af0bb1400008152602001600081525060116000600260ff168152602001908152602001600020600082015181600001556020820151816001015560408201518160020155606082015181600301556080820151816004015560a0820151816005015560c0820151816006015560e082015181600701556101008201518160080155905050604051806101200160405280622dc6c081526020016000815260200162093a808152602001608f81526020016103e8815260200164016324f395815260200164e8d4a5100081526020016703782dace9d900008152602001600081525060116000600360ff168152602001908152602001600020600082015181600001556020820151816001015560408201518160020155606082015181600301556080820151816004015560a0820151816005015560c0820151816006015560e082015181600701556101008201518160080155905050604051806101200160405280623d09008152602001600081526020016000815260200160018152602001606481526020016409b386e0ab815260200164e8d4a510008152602001670429d069189e00008152602001600081525060116000600460ff168152602001908152602001600020600082015181600001556020820151816001015560408201518160020155606082015181600301556080820151816004015560a0820151816005015560c0820151816006015560e082015181600701556101008201518160080155905050604051806101200160405280620f4240815260200162278d00815260200162ed4e00815260200164014699cd97815260200164e8d4a510008152602001630d9bbde6815260200164e8d4a51000815260200160008152602001600081525060116000600560ff168152602001908152602001600020600082015181600001556020820151816001015560408201518160020155606082015181600301556080820151816004015560a0820151816005015560c0820151816006015560e082015181600701556101008201518160080155905050604051806101200160405280621e84808152602001600081526020016301e13380815260200163a34ce6cb815260200164e8d4a5100081526020016306cddef3815260200164e8d4a51000815260200160008152602001600081525060116000600660ff168152602001908152602001600020600082015181600001556020820151816001015560408201518160020155606082015181600301556080820151816004015560a0820151816005015560c0820151816006015560e082015181600701556101008201518160080155905050604051806101200160405280621e8480815260200162ed4e0081526020016305a39a808152602001600181526020016103e8815260200163027bc86b815260200164e8d4a51000815260200160008152602001600081525060116000600760ff168152602001908152602001600020600082015181600001556020820151816001015560408201518160020155606082015181600301556080820151816004015560a0820151816005015560c0820151816006015560e0820151816007015561010082015181600801559050506040518061012001604052806207a1208152602001600081526020016301e13380815260200163a34ce6cb815260200164e8d4a5100081526020016306cddef3815260200164e8d4a51000815260200160008152602001600081525060116000600860ff168152602001908152602001600020600082015181600001556020820151816001015560408201518160020155606082015181600301556080820151816004015560a0820151816005015560c0820151816006015560e0820151816007015561010082015181600801559050506040518061012001604052806207a120815260200162ed4e00815260200162ed4e008152602001606c81526020016127108152602001602d8152602001620186a0815260200160008152602001600081525060116000600960ff168152602001908152602001600020600082015181600001556020820151816001015560408201518160020155606082015181600301556080820151816004015560a0820151816005015560c0820151816006015560e082015181600701556101008201518160080155905050565b828054600181600116156101000203166002900490600052602060002090601f016020900481019282601f1062000b1157805160ff191683800117855562000b42565b8280016001018555821562000b42579182015b8281111562000b4157825182559160200191906001019062000b24565b5b50905062000b51919062000b55565b5090565b62000b7a91905b8082111562000b7657600081600090555060010162000b5c565b5090565b90565b6132db8062000b8d6000396000f3fe6080604052600436106101355760003560e01c80638da5cb5b116100ab578063a9059cbb1161006f578063a9059cbb14610731578063bba5b24e146107a4578063c5816f19146107d5578063d73aca2c14610826578063dd62ed3e14610881578063f2fde38b1461090657610135565b80638da5cb5b1461053157806395d4063f1461058857806395d89b41146105c65780639d6c7c3514610656578063a457c2d7146106be57610135565b8063313ce567116100fd578063313ce56714610367578063380d831b1461039857806339509351146103c75780635d29dab41461043a57806370a08231146104b5578063715018a61461051a57610135565b806306fdde031461013a578063095ea7b3146101ca57806318160ddd1461023d5780631cc528341461026857806323b872dd146102d4575b600080fd5b34801561014657600080fd5b5061014f610957565b6040518080602001828103825283818151815260200191508051906020019080838360005b8381101561018f578082015181840152602081019050610174565b50505050905090810190601f1680156101bc5780820380516001836020036101000a031916815260200191505b509250505060405180910390f35b3480156101d657600080fd5b50610223600480360360408110156101ed57600080fd5b81019080803573ffffffffffffffffffffffffffffffffffffffff169060200190929190803590602001909291905050506109f9565b604051808215151515815260200191505060405180910390f35b34801561024957600080fd5b50610252610a17565b6040518082815260200191505060405180910390f35b34801561027457600080fd5b506102b76004803603602081101561028b57600080fd5b81019080803573ffffffffffffffffffffffffffffffffffffffff169060200190929190505050610a21565b604051808381526020018281526020019250505060405180910390f35b3480156102e057600080fd5b5061034d600480360360608110156102f757600080fd5b81019080803573ffffffffffffffffffffffffffffffffffffffff169060200190929190803573ffffffffffffffffffffffffffffffffffffffff16906020019092919080359060200190929190505050610ac6565b604051808215151515815260200191505060405180910390f35b34801561037357600080fd5b5061037c610b9f565b604051808260ff1660ff16815260200191505060405180910390f35b3480156103a457600080fd5b506103ad610bb6565b604051808215151515815260200191505060405180910390f35b3480156103d357600080fd5b50610420600480360360408110156103ea57600080fd5b81019080803573ffffffffffffffffffffffffffffffffffffffff16906020019092919080359060200190929190505050610ee7565b604051808215151515815260200191505060405180910390f35b34801561044657600080fd5b506104b36004803603606081101561045d57600080fd5b8101908080359060200190929190803573ffffffffffffffffffffffffffffffffffffffff169060200190929190803573ffffffffffffffffffffffffffffffffffffffff169060200190929190505050610f9a565b005b3480156104c157600080fd5b50610504600480360360208110156104d857600080fd5b81019080803573ffffffffffffffffffffffffffffffffffffffff169060200190929190505050611131565b6040518082815260200191505060405180910390f35b34801561052657600080fd5b5061052f61117a565b005b34801561053d57600080fd5b50610546611302565b604051808273ffffffffffffffffffffffffffffffffffffffff1673ffffffffffffffffffffffffffffffffffffffff16815260200191505060405180910390f35b34801561059457600080fd5b506105c4600480360360208110156105ab57600080fd5b81019080803560ff16906020019092919050505061132b565b005b3480156105d257600080fd5b506105db611858565b6040518080602001828103825283818151815260200191508051906020019080838360005b8381101561061b578082015181840152602081019050610600565b50505050905090810190601f1680156106485780820380516001836020036101000a031916815260200191505b509250505060405180910390f35b34801561066257600080fd5b506106bc6004803603606081101561067957600080fd5b81019080803573ffffffffffffffffffffffffffffffffffffffff16906020019092919080359060200190929190803560ff1690602001909291905050506118fa565b005b3480156106ca57600080fd5b50610717600480360360408110156106e157600080fd5b81019080803573ffffffffffffffffffffffffffffffffffffffff16906020019092919080359060200190929190505050611c7c565b604051808215151515815260200191505060405180910390f35b34801561073d57600080fd5b5061078a6004803603604081101561075457600080fd5b81019080803573ffffffffffffffffffffffffffffffffffffffff16906020019092919080359060200190929190505050611d49565b604051808215151515815260200191505060405180910390f35b6107d3600480360360208110156107ba57600080fd5b81019080803560ff169060200190929190505050611d67565b005b3480156107e157600080fd5b50610824600480360360208110156107f857600080fd5b81019080803573ffffffffffffffffffffffffffffffffffffffff1690602001909291905050506121c1565b005b34801561083257600080fd5b5061087f6004803603604081101561084957600080fd5b81019080803573ffffffffffffffffffffffffffffffffffffffff16906020019092919080359060200190929190505050612356565b005b34801561088d57600080fd5b506108f0600480360360408110156108a457600080fd5b81019080803573ffffffffffffffffffffffffffffffffffffffff169060200190929190803573ffffffffffffffffffffffffffffffffffffffff1690602001909291905050506124f8565b6040518082815260200191505060405180910390f35b34801561091257600080fd5b506109556004803603602081101561092957600080fd5b81019080803573ffffffffffffffffffffffffffffffffffffffff16906020019092919050505061257f565b005b606060048054600181600116156101000203166002900480601f0160208091040260200160405190810160405280929190818152602001828054600181600116156101000203166002900480156109ef5780601f106109c4576101008083540402835291602001916109ef565b820191906000526020600020905b8154815290600101906020018083116109d257829003601f168201915b5050505050905090565b6000610a0d610a0661278c565b8484612794565b6001905092915050565b6000600354905090565b600080601360008473ffffffffffffffffffffffffffffffffffffffff1673ffffffffffffffffffffffffffffffffffffffff16815260200190815260200160002060000154601360008573ffffffffffffffffffffffffffffffffffffffff1673ffffffffffffffffffffffffffffffffffffffff16815260200190815260200160002060020160009054906101000a900460ff168060ff16905091509150915091565b6000610ad384848461298b565b610b9484610adf61278c565b610b8f8560405180606001604052806028815260200161321060289139600260008b73ffffffffffffffffffffffffffffffffffffffff1673ffffffffffffffffffffffffffffffffffffffff1681526020019081526020016000206000610b4561278c565b73ffffffffffffffffffffffffffffffffffffffff1673ffffffffffffffffffffffffffffffffffffffff16815260200190815260200160002054612c509092919063ffffffff16565b612794565b600190509392505050565b6000600660009054906101000a900460ff16905090565b6000610bc061278c565b73ffffffffffffffffffffffffffffffffffffffff166000809054906101000a900473ffffffffffffffffffffffffffffffffffffffff1673ffffffffffffffffffffffffffffffffffffffff1614610c81576040517f08c379a00000000000000000000000000000000000000000000000000000000081526004018080602001828103825260208152602001807f4f776e61626c653a2063616c6c6572206973206e6f7420746865206f776e657281525060200191505060405180910390fd5b600754421015610cf9576040517f08c379a00000000000000000000000000000000000000000000000000000000081526004018080602001828103825260148152602001807f73616c65206e6f7420796574207374617274656400000000000000000000000081525060200191505060405180910390fd5b601060009054906101000a900460ff1615610d7c576040517f08c379a000000000000000000000000000000000000000000000000000000000815260040180806020018281038252600a8152602001807f53616c6520656e6465640000000000000000000000000000000000000000000081525060200191505060405180910390fd5b6001601060006101000a81548160ff021916908315150217905550426008819055506000600190505b60048160ff1611610e3b57601160008260ff1660ff16815260200190815260200160002060080154601160008360ff1660ff168152602001908152602001600020600001541115610e2e57601160008260ff1660ff16815260200190815260200160002060080154601160008360ff1660ff168152602001908152602001600020600001819055505b8080600101915050610da5565b506000610e4d476102a36103e8612d10565b9050601060019054906101000a900473ffffffffffffffffffffffffffffffffffffffff1673ffffffffffffffffffffffffffffffffffffffff166108fc829081150290604051600060405180830381858888f19350505050158015610eb7573d6000803e3d6000fd5b50610ec547601e6064612d10565b600e81905550610ed94760196103e8612d10565b600f81905550600191505090565b6000610f90610ef461278c565b84610f8b8560026000610f0561278c565b73ffffffffffffffffffffffffffffffffffffffff1673ffffffffffffffffffffffffffffffffffffffff16815260200190815260200160002060008973ffffffffffffffffffffffffffffffffffffffff1673ffffffffffffffffffffffffffffffffffffffff16815260200190815260200160002054612d2790919063ffffffff16565b612794565b6001905092915050565b610fa261278c565b73ffffffffffffffffffffffffffffffffffffffff166000809054906101000a900473ffffffffffffffffffffffffffffffffffffffff1673ffffffffffffffffffffffffffffffffffffffff1614611063576040517f08c379a00000000000000000000000000000000000000000000000000000000081526004018080602001828103825260208152602001807f4f776e61626c653a2063616c6c6572206973206e6f7420746865206f776e657281525060200191505060405180910390fd5b60008290508073ffffffffffffffffffffffffffffffffffffffff1663a9059cbb83866040518363ffffffff1660e01b8152600401808373ffffffffffffffffffffffffffffffffffffffff1673ffffffffffffffffffffffffffffffffffffffff16815260200182815260200192505050602060405180830381600087803b1580156110ef57600080fd5b505af1158015611103573d6000803e3d6000fd5b505050506040513d602081101561111957600080fd5b81019080805190602001909291905050505050505050565b6000600160008373ffffffffffffffffffffffffffffffffffffffff1673ffffffffffffffffffffffffffffffffffffffff168152602001908152602001600020549050919050565b61118261278c565b73ffffffffffffffffffffffffffffffffffffffff166000809054906101000a900473ffffffffffffffffffffffffffffffffffffffff1673ffffffffffffffffffffffffffffffffffffffff1614611243576040517f08c379a00000000000000000000000000000000000000000000000000000000081526004018080602001828103825260208152602001807f4f776e61626c653a2063616c6c6572206973206e6f7420746865206f776e657281525060200191505060405180910390fd5b600073ffffffffffffffffffffffffffffffffffffffff166000809054906101000a900473ffffffffffffffffffffffffffffffffffffffff1673ffffffffffffffffffffffffffffffffffffffff167f8be0079c531659141344cd1fd0a4f28419497f9722a3daafe3b4186f6b6457e060405160405180910390a360008060006101000a81548173ffffffffffffffffffffffffffffffffffffffff021916908373ffffffffffffffffffffffffffffffffffffffff160217905550565b60008060009054906101000a900473ffffffffffffffffffffffffffffffffffffffff16905090565b601060009054906101000a900460ff168015611366575042600854601160008460ff1660ff1681526020019081526020016000206001015401105b6113d8576040517f08c379a00000000000000000000000000000000000000000000000000000000081526004018080602001828103825260198152602001807f76657374696e672069736e27742073746172746564207965740000000000000081525060200191505060405180910390fd5b8060ff16601360003373ffffffffffffffffffffffffffffffffffffffff1673ffffffffffffffffffffffffffffffffffffffff16815260200190815260200160002060020160009054906101000a900460ff1660ff1614801561147e57506000601360003373ffffffffffffffffffffffffffffffffffffffff1673ffffffffffffffffffffffffffffffffffffffff16815260200190815260200160002060000154115b6114f0576040517f08c379a00000000000000000000000000000000000000000000000000000000081526004018080602001828103825260118152602001807f6e6f20746f6b656e7320746f207665737400000000000000000000000000000081525060200191505060405180910390fd5b6000611577601360003373ffffffffffffffffffffffffffffffffffffffff1673ffffffffffffffffffffffffffffffffffffffff16815260200190815260200160002060000154601160008560ff1660ff16815260200190815260200160002060050154601160008660ff1660ff16815260200190815260200160002060060154612d10565b9050600080601360003373ffffffffffffffffffffffffffffffffffffffff1673ffffffffffffffffffffffffffffffffffffffff168152602001908152602001600020600101541415611603576115fc610e10600854601160008760ff1660ff16815260200190815260200160002060010154420301612daf90919063ffffffff16565b905061165f565b61165c610e10601360003373ffffffffffffffffffffffffffffffffffffffff1673ffffffffffffffffffffffffffffffffffffffff168152602001908152602001600020600101544203612daf90919063ffffffff16565b90505b6116728183612df990919063ffffffff16565b915042601360003373ffffffffffffffffffffffffffffffffffffffff1673ffffffffffffffffffffffffffffffffffffffff1681526020019081526020016000206001018190555081601360003373ffffffffffffffffffffffffffffffffffffffff1673ffffffffffffffffffffffffffffffffffffffff168152602001908152602001600020600001541061175f5761175982601360003373ffffffffffffffffffffffffffffffffffffffff1673ffffffffffffffffffffffffffffffffffffffff16815260200190815260200160002060000154612e7f90919063ffffffff16565b506117ed565b601360003373ffffffffffffffffffffffffffffffffffffffff1673ffffffffffffffffffffffffffffffffffffffff1681526020019081526020016000206000015491506000601360003373ffffffffffffffffffffffffffffffffffffffff1673ffffffffffffffffffffffffffffffffffffffff168152602001908152602001600020600001819055505b6117f73383612ec9565b3373ffffffffffffffffffffffffffffffffffffffff167f0c4f56fec0b96b3e1261d4988bc40bfb0a4cb4117732a0533a72a19cac93d2318385604051808381526020018260ff1660ff1681526020019250505060405180910390a2505050565b606060058054600181600116156101000203166002900480601f0160208091040260200160405190810160405280929190818152602001828054600181600116156101000203166002900480156118f05780601f106118c5576101008083540402835291602001916118f0565b820191906000526020600020905b8154815290600101906020018083116118d357829003601f168201915b5050505050905090565b61190261278c565b73ffffffffffffffffffffffffffffffffffffffff166000809054906101000a900473ffffffffffffffffffffffffffffffffffffffff1673ffffffffffffffffffffffffffffffffffffffff16146119c3576040517f08c379a00000000000000000000000000000000000000000000000000000000081526004018080602001828103825260208152602001807f4f776e61626c653a2063616c6c6572206973206e6f7420746865206f776e657281525060200191505060405180910390fd5b6000601360008573ffffffffffffffffffffffffffffffffffffffff1673ffffffffffffffffffffffffffffffffffffffff1681526020019081526020016000206000015414611a7b576040517f08c379a00000000000000000000000000000000000000000000000000000000081526004018080602001828103825260148152602001807f627579657220616c72656164792065786973747300000000000000000000000081525060200191505060405180910390fd5b8060ff166004108015611a915750600a8160ff16105b611b03576040517f08c379a000000000000000000000000000000000000000000000000000000000815260040180806020018281038252600d8152602001807f696e76616c696420626c6f636b0000000000000000000000000000000000000081525060200191505060405180910390fd5b6040518060600160405280838152602001600081526020018260ff16815250601360008573ffffffffffffffffffffffffffffffffffffffff1673ffffffffffffffffffffffffffffffffffffffff168152602001908152602001600020600082015181600001556020820151816001015560408201518160020160006101000a81548160ff021916908360ff160217905550905050611bc882601160008460ff1660ff16815260200190815260200160002060080154612d2790919063ffffffff16565b50601160008260ff1660ff16815260200190815260200160002060080154601160008360ff1660ff168152602001908152602001600020600001541015611c77576040517f08c379a000000000000000000000000000000000000000000000000000000000815260040180806020018281038252601b8152602001807f616d6f756e74206578636565647320626c6f636b20737570706c79000000000081525060200191505060405180910390fd5b505050565b6000611d3f611c8961278c565b84611d3a856040518060600160405280602581526020016132816025913960026000611cb361278c565b73ffffffffffffffffffffffffffffffffffffffff1673ffffffffffffffffffffffffffffffffffffffff16815260200190815260200160002060008a73ffffffffffffffffffffffffffffffffffffffff1673ffffffffffffffffffffffffffffffffffffffff16815260200190815260200160002054612c509092919063ffffffff16565b612794565b6001905092915050565b6000611d5d611d5661278c565b848461298b565b6001905092915050565b600754421015611ddf576040517f08c379a00000000000000000000000000000000000000000000000000000000081526004018080602001828103825260148152602001807f73616c65206e6f7420796574207374617274656400000000000000000000000081525060200191505060405180910390fd5b601060009054906101000a900460ff1615611e62576040517f08c379a000000000000000000000000000000000000000000000000000000000815260040180806020018281038252600a8152602001807f53616c6520656e6465640000000000000000000000000000000000000000000081525060200191505060405180910390fd5b34600c54108015611e745750600d5434105b611ee6576040517f08c379a00000000000000000000000000000000000000000000000000000000081526004018080602001828103825260168152602001807f6275796572206c696d6974206d69736d6174636865640000000000000000000081525060200191505060405180910390fd5b6000601360003373ffffffffffffffffffffffffffffffffffffffff1673ffffffffffffffffffffffffffffffffffffffff1681526020019081526020016000206000015414611f9e576040517f08c379a00000000000000000000000000000000000000000000000000000000081526004018080602001828103825260148152602001807f627579657220616c72656164792065786973747300000000000000000000000081525060200191505060405180910390fd5b8060ff166000108015611fb4575060058160ff16105b612026576040517f08c379a000000000000000000000000000000000000000000000000000000000815260040180806020018281038252600d8152602001807f696e76616c696420626c6f636b0000000000000000000000000000000000000081525060200191505060405180910390fd5b600034601160008460ff1660ff168152602001908152602001600020600701540290506040518060600160405280828152602001600081526020018360ff16815250601360003373ffffffffffffffffffffffffffffffffffffffff1673ffffffffffffffffffffffffffffffffffffffff168152602001908152602001600020600082015181600001556020820151816001015560408201518160020160006101000a81548160ff021916908360ff16021790555090505061210e81601160008560ff1660ff16815260200190815260200160002060080154612d2790919063ffffffff16565b50601160008360ff1660ff16815260200190815260200160002060080154601160008460ff1660ff1681526020019081526020016000206000015410156121bd576040517f08c379a00000000000000000000000000000000000000000000000000000000081526004018080602001828103825260158152602001807f616d6f756e74206578636565647320737570706c79000000000000000000000081525060200191505060405180910390fd5b5050565b6121c961278c565b73ffffffffffffffffffffffffffffffffffffffff166000809054906101000a900473ffffffffffffffffffffffffffffffffffffffff1673ffffffffffffffffffffffffffffffffffffffff161461228a576040517f08c379a00000000000000000000000000000000000000000000000000000000081526004018080602001828103825260208152602001807f4f776e61626c653a2063616c6c6572206973206e6f7420746865206f776e657281525060200191505060405180910390fd5b6000600e5411612302576040517f08c379a00000000000000000000000000000000000000000000000000000000081526004018080602001828103825260108152602001807f6e6f2066756e647320746f2073656e640000000000000000000000000000000081525060200191505060405180910390fd5b8073ffffffffffffffffffffffffffffffffffffffff166108fc600e549081150290604051600060405180830381858888f1935050505015801561234a573d6000803e3d6000fd5b506000600e8190555050565b61235e61278c565b73ffffffffffffffffffffffffffffffffffffffff166000809054906101000a900473ffffffffffffffffffffffffffffffffffffffff1673ffffffffffffffffffffffffffffffffffffffff161461241f576040517f08c379a00000000000000000000000000000000000000000000000000000000081526004018080602001828103825260208152602001807f4f776e61626c653a2063616c6c6572206973206e6f7420746865206f776e657281525060200191505060405180910390fd5b6000600f5411612497576040517f08c379a00000000000000000000000000000000000000000000000000000000081526004018080602001828103825260158152602001807f6e6f2066756e6473206c65667420746f2073656e64000000000000000000000081525060200191505060405180910390fd5b8173ffffffffffffffffffffffffffffffffffffffff166108fc829081150290604051600060405180830381858888f193505050501580156124dd573d6000803e3d6000fd5b506124f381600f54612e7f90919063ffffffff16565b505050565b6000600260008473ffffffffffffffffffffffffffffffffffffffff1673ffffffffffffffffffffffffffffffffffffffff16815260200190815260200160002060008373ffffffffffffffffffffffffffffffffffffffff1673ffffffffffffffffffffffffffffffffffffffff16815260200190815260200160002054905092915050565b61258761278c565b73ffffffffffffffffffffffffffffffffffffffff166000809054906101000a900473ffffffffffffffffffffffffffffffffffffffff1673ffffffffffffffffffffffffffffffffffffffff1614612648576040517f08c379a00000000000000000000000000000000000000000000000000000000081526004018080602001828103825260208152602001807f4f776e61626c653a2063616c6c6572206973206e6f7420746865206f776e657281525060200191505060405180910390fd5b600073ffffffffffffffffffffffffffffffffffffffff168173ffffffffffffffffffffffffffffffffffffffff1614156126ce576040517f08c379a00000000000000000000000000000000000000000000000000000000081526004018080602001828103825260268152602001806131816026913960400191505060405180910390fd5b8073ffffffffffffffffffffffffffffffffffffffff166000809054906101000a900473ffffffffffffffffffffffffffffffffffffffff1673ffffffffffffffffffffffffffffffffffffffff167f8be0079c531659141344cd1fd0a4f28419497f9722a3daafe3b4186f6b6457e060405160405180910390a3806000806101000a81548173ffffffffffffffffffffffffffffffffffffffff021916908373ffffffffffffffffffffffffffffffffffffffff16021790555050565b600033905090565b600073ffffffffffffffffffffffffffffffffffffffff168373ffffffffffffffffffffffffffffffffffffffff16141561281a576040517f08c379a000000000000000000000000000000000000000000000000000000000815260040180806020018281038252602481526020018061325d6024913960400191505060405180910390fd5b600073ffffffffffffffffffffffffffffffffffffffff168273ffffffffffffffffffffffffffffffffffffffff1614156128a0576040517f08c379a00000000000000000000000000000000000000000000000000000000081526004018080602001828103825260228152602001806131a76022913960400191505060405180910390fd5b80600260008573ffffffffffffffffffffffffffffffffffffffff1673ffffffffffffffffffffffffffffffffffffffff16815260200190815260200160002060008473ffffffffffffffffffffffffffffffffffffffff1673ffffffffffffffffffffffffffffffffffffffff168152602001908152602001600020819055508173ffffffffffffffffffffffffffffffffffffffff168373ffffffffffffffffffffffffffffffffffffffff167f8c5be1e5ebec7d5bd14f71427d1e84f3dd0314c0f7b2291e5b200ac8c7c3b925836040518082815260200191505060405180910390a3505050565b600073ffffffffffffffffffffffffffffffffffffffff168373ffffffffffffffffffffffffffffffffffffffff161415612a11576040517f08c379a00000000000000000000000000000000000000000000000000000000081526004018080602001828103825260258152602001806132386025913960400191505060405180910390fd5b600073ffffffffffffffffffffffffffffffffffffffff168273ffffffffffffffffffffffffffffffffffffffff161415612a97576040517f08c379a000000000000000000000000000000000000000000000000000000000815260040180806020018281038252602381526020018061315e6023913960400191505060405180910390fd5b612aa2838383613092565b612b0e816040518060600160405280602681526020016131c960269139600160008773ffffffffffffffffffffffffffffffffffffffff1673ffffffffffffffffffffffffffffffffffffffff16815260200190815260200160002054612c509092919063ffffffff16565b600160008573ffffffffffffffffffffffffffffffffffffffff1673ffffffffffffffffffffffffffffffffffffffff16815260200190815260200160002081905550612ba381600160008573ffffffffffffffffffffffffffffffffffffffff1673ffffffffffffffffffffffffffffffffffffffff16815260200190815260200160002054612d2790919063ffffffff16565b600160008473ffffffffffffffffffffffffffffffffffffffff1673ffffffffffffffffffffffffffffffffffffffff168152602001908152602001600020819055508173ffffffffffffffffffffffffffffffffffffffff168373ffffffffffffffffffffffffffffffffffffffff167fddf252ad1be2c89b69c2b068fc378daa952ba7f163c4a11628f55a4df523b3ef836040518082815260200191505060405180910390a3505050565b6000838311158290612cfd576040517f08c379a00000000000000000000000000000000000000000000000000000000081526004018080602001828103825283818151815260200191508051906020019080838360005b83811015612cc2578082015181840152602081019050612ca7565b50505050905090810190601f168015612cef5780820380516001836020036101000a031916815260200191505b509250505060405180910390fd5b5060008385039050809150509392505050565b60008183850281612d1d57fe5b0490509392505050565b600080828401905083811015612da5576040517f08c379a000000000000000000000000000000000000000000000000000000000815260040180806020018281038252601b8152602001807f536166654d6174683a206164646974696f6e206f766572666c6f77000000000081525060200191505060405180910390fd5b8091505092915050565b6000612df183836040518060400160405280601a81526020017f536166654d6174683a206469766973696f6e206279207a65726f000000000000815250613097565b905092915050565b600080831415612e0c5760009050612e79565b6000828402905082848281612e1d57fe5b0414612e74576040517f08c379a00000000000000000000000000000000000000000000000000000000081526004018080602001828103825260218152602001806131ef6021913960400191505060405180910390fd5b809150505b92915050565b6000612ec183836040518060400160405280601e81526020017f536166654d6174683a207375627472616374696f6e206f766572666c6f770000815250612c50565b905092915050565b600073ffffffffffffffffffffffffffffffffffffffff168273ffffffffffffffffffffffffffffffffffffffff161415612f6c576040517f08c379a000000000000000000000000000000000000000000000000000000000815260040180806020018281038252601f8152602001807f45524332303a206d696e7420746f20746865207a65726f20616464726573730081525060200191505060405180910390fd5b612f7860008383613092565b612f8d81600354612d2790919063ffffffff16565b600381905550612fe581600160008573ffffffffffffffffffffffffffffffffffffffff1673ffffffffffffffffffffffffffffffffffffffff16815260200190815260200160002054612d2790919063ffffffff16565b600160008473ffffffffffffffffffffffffffffffffffffffff1673ffffffffffffffffffffffffffffffffffffffff168152602001908152602001600020819055508173ffffffffffffffffffffffffffffffffffffffff16600073ffffffffffffffffffffffffffffffffffffffff167fddf252ad1be2c89b69c2b068fc378daa952ba7f163c4a11628f55a4df523b3ef836040518082815260200191505060405180910390a35050565b505050565b60008083118290613143576040517f08c379a00000000000000000000000000000000000000000000000000000000081526004018080602001828103825283818151815260200191508051906020019080838360005b838110156131085780820151818401526020810190506130ed565b50505050905090810190601f1680156131355780820380516001836020036101000a031916815260200191505b509250505060405180910390fd5b50600083858161314f57fe5b04905080915050939250505056fe45524332303a207472616e7366657220746f20746865207a65726f20616464726573734f776e61626c653a206e6577206f776e657220697320746865207a65726f206164647265737345524332303a20617070726f766520746f20746865207a65726f206164647265737345524332303a207472616e7366657220616d6f756e7420657863656564732062616c616e6365536166654d6174683a206d756c7469706c69636174696f6e206f766572666c6f7745524332303a207472616e7366657220616d6f756e74206578636565647320616c6c6f77616e636545524332303a207472616e736665722066726f6d20746865207a65726f206164647265737345524332303a20617070726f76652066726f6d20746865207a65726f206164647265737345524332303a2064656372656173656420616c6c6f77616e63652062656c6f77207a65726fa26469706673582212208971e2ebcbc5f241c84569476b0946624f16a3c5975c3de24836a39873453deb64736f6c63430006060033",
  "source": "pragma solidity 0.6.6;\n\nimport \"openzeppelin-solidity/contracts/math/SafeMath.sol\";\nimport \"openzeppelin-solidity/contracts/access/Ownable.sol\";\nimport \"openzeppelin-solidity/contracts/token/ERC20/ERC20.sol\";\nimport \"contracts/uniswap.sol\";\n\n/// @title  TokenSaleContract - A sale contract of token plus uniswap\n///         implementation that is backed by ether.\ncontract TokenSale is Ownable, ERC20 {\n\nusing SafeMath for uint256;\n\nuint startTime;\nuint endTime;\nuint256 softCap;\nuint256 hardCap;\nuint256 ethPrice;\nuint256 minBuy;\nuint256 maxBuy;\nuint256 uniswapEth;\nuint256 referalEthReward;\nbool saleEnd;\naddress payable companyWallet;\n\nconstructor(uint _startTime, uint256 _softCap, uint256 _hardCap, uint256 _minBuy, uint256 _maxBuy, address payable _wallet, string memory _tokenName, string memory _symbol) ERC20(_tokenName,_symbol) public {\n    startTime = _startTime;\n    softCap = _softCap;\n    hardCap = _hardCap;\n    minBuy = _minBuy;\n    maxBuy = _maxBuy;\n    companyWallet = _wallet;\n    initBlocks();\n}\n\n// Allow other ERC20 tokens to be withdrawn from contract in case of accidental deposit, except\n// for the token being sold.\nfunction withdrawERC20(uint256 _amount, address _token, address _to) onlyOwner external {\n    ERC20 erc20 =  ERC20(_token);\n    erc20.transfer(_to, _amount);\n}\n\n// start sale\nmodifier isSaleStarted {\nrequire(now >= startTime);\n_;\n}\n// check if sale ended or not\nmodifier isSaleble {\n    require(now >= startTime,\"sale not yet started\");\n    require(!saleEnd,\"Sale ended\");\n_;\n}\nstruct TokenBlock {\n    uint supply;\n    uint lockPeriod; // days\n    uint vestingPeriod;  // days\n    uint releasePerDayPerc;\n    uint releasePerDayDiv;\n    uint releasePerHourPerc;\n    uint releasePerHourDiv;\n    uint price;\n    uint256 issued;\n  //   mapping(address => uint) holders;\n}\nmapping(uint8 => TokenBlock) saleTokens;\nmapping(uint8 => TokenBlock) nonsaleTokens;\n\nstruct tokens {\n    uint256 amount;\n    uint256 lastVestingTime;\n    uint8 blockId;\n}\nmapping(address => tokens) balance;\n// init blocks 1-4 saleable & 5 nonsaleable blocks\nfunction initBlocks() internal {\n    saleTokens[1] = TokenBlock(1000000,0 days, 30 days,334,10000,1391666667,1000000000000,0.15 ether,0);\n    saleTokens[2] = TokenBlock(2000000,0 days, 14 days,715,10000,2979166667,1000000000000,0.20 ether,0);\n    saleTokens[3] = TokenBlock(3000000,0 days, 7 days,143,1000,5958333333,1000000000000,0.25 ether,0);\n    saleTokens[4] = TokenBlock(4000000,0 days, 0 days,1,100,41666666667,1000000000000,0.30 ether,0);\n    saleTokens[5] = TokenBlock(1000000,30 days, 180 days,5479452055,1000000000000,228310502,1000000000000,0 ether,0); // advisors block\n    saleTokens[6] = TokenBlock(2000000,0 days, 365 days,2739726027,1000000000000,114155251,1000000000000,0 ether,0); // marketing/staking block\n    saleTokens[7] = TokenBlock(2000000,180 days, 3*365 days,1,1000,41666667,1000000000000,0 ether,0); // team block\n    saleTokens[8] = TokenBlock(500000,0 days, 365 days,2739726027,1000000000000,114155251,1000000000000,0 ether,0); // bounty block\n    saleTokens[9] = TokenBlock(500000,180 days, 180 days,108,10000,45,100000,0 ether,0); // airdrops block\n}\n\n// end Sale\nfunction endSale() onlyOwner external isSaleble returns (bool) {\n\n saleEnd = true;\n endTime = now;\n // burn tokens which are not issued yet saleable tokens only e.g burnable = supply - issued\n for(uint8 i = 1; i <= 4; i++){\n     if(saleTokens[i].supply > saleTokens[i].issued){\n         // burning extra tokens\n         saleTokens[i].supply = saleTokens[i].issued;\n     }\n }\n // transfer raised eth to respective addresses as per quota\n    // 67.5% to company wallet, 30% for uniswap, 2.5% for referals\n    uint256 eths;\n        eths = perCalc(address(this).balance,675,1000);\n        companyWallet.transfer(eths);\n        uniswapEth = perCalc(address(this).balance,30,100);\n        referalEthReward = perCalc(address(this).balance,25,1000);\n    return true;\n}\n/// Ability to add users after sale ended in nonsaleable blocks\nfunction issueNonSaleTokens(address account,uint256 amount, uint8 _block) onlyOwner external {\n    require(balance[account].amount == 0,\"buyer already exists\");\n    require(4 < _block &&_block < 10,\"invalid block\"); \n\n    balance[account] = tokens(amount,0,_block);\n    saleTokens[_block].issued.add(amount);\n    require(saleTokens[_block].supply >= saleTokens[_block].issued,\"amount exceeds block supply\");\n}\n// to buy tokens\nfunction buyTokens(uint8 _block) isSaleble payable external {\n    require(minBuy < msg.value && msg.value < maxBuy,\"buyer limit mismatched\");\n    require(balance[msg.sender].amount == 0,\"buyer already exists\");\n    require(0 < _block &&_block < 5,\"invalid block\");\n    \n    uint256 amount = (saleTokens[_block].price ) * msg.value;  // price in eth but value in wei :/ (auto conversion)\n\n    \n    balance[msg.sender] = tokens(amount,0,_block);\n    saleTokens[_block].issued.add(amount);\n    require(saleTokens[_block].supply >= saleTokens[_block].issued,\"amount exceeds supply\");\n}\n\n// to claim vested tokens\nfunction claim(uint8 _block) external {\n// sale & lock period ended, vesting calculation\nrequire(saleEnd && ( saleTokens[_block].lockPeriod + endTime ) < now, \"vesting isn't started yet\");\nrequire(balance[msg.sender].blockId == _block && balance[msg.sender].amount > 0, \"no tokens to vest\");\n\n// save last vested time and then caclulate current with it to find how much to be vested now and then update last vvested time\n// calculate no. hours. obtain 1 hour amount and multiply with total hours\nuint value = perCalc(balance[msg.sender].amount, saleTokens[_block].releasePerHourPerc, saleTokens[_block].releasePerHourDiv);\nuint hour;\nif(balance[msg.sender].lastVestingTime == 0){\n     hour = (now - saleTokens[_block].lockPeriod + endTime).div(1 hours);\n}else\n hour = (now - balance[msg.sender].lastVestingTime).div(1 hours);\n\n value = value.mul(hour);\n // last vesting time update\n balance[msg.sender].lastVestingTime = now;\n// vested tokens deduct from block's tokens\nif(balance[msg.sender].amount >= value){\n    balance[msg.sender].amount.sub(value);\n}else{\n    value = balance[msg.sender].amount;\n    balance[msg.sender].amount = 0;\n}\n\n// add tokens to erc20 supply as vested tokens to be consumed and used as user wants.\n_mint(msg.sender, value);\n// emit token vested\nemit Vesting(msg.sender,value,_block);\n}\n\n\nfunction perCalc(uint amount, uint percentage, uint div) internal returns(uint ){\n    return ( amount * percentage ) / div;\n}\nfunction balanceOfBlock(address account) view external returns(uint,uint){\n    return (balance[account].amount,balance[account].blockId);\n}\nfunction referalReward(address payable account, uint256 amount) onlyOwner external {\n    require(referalEthReward > 0,\"no funds left to send\");\n    account.transfer(amount);\n    referalEthReward.sub(amount);\n}\nfunction uniswapEthWithdraw(address payable account) onlyOwner external {\n    require(uniswapEth > 0,\"no funds to send\");\n    account.transfer(uniswapEth);\n    uniswapEth = 0;\n}\nevent Vesting(address indexed account, uint256 amount, uint8 blockId);\n}\n",
  "sourcePath": "/home/malik/AVOLA/eth-sale-contract/contracts/TokenSaleContract.sol",
  "compiler": {
    "name": "solc",
    "version": "0.6.6+commit.6c089d02.Emscripten.clang"
  },
  "schemaVersion": "3.0.23",
  "updatedAt": "2021-01-08T08:09:07.177Z",
  "devdoc": {
    "methods": {
      "allowance(address,address)": {
        "details": "See {IERC20-allowance}."
      },
      "approve(address,uint256)": {
        "details": "See {IERC20-approve}.     * Requirements:     * - `spender` cannot be the zero address."
      },
      "balanceOf(address)": {
        "details": "See {IERC20-balanceOf}."
      },
      "decimals()": {
        "details": "Returns the number of decimals used to get its user representation. For example, if `decimals` equals `2`, a balance of `505` tokens should be displayed to a user as `5,05` (`505 / 10 ** 2`).     * Tokens usually opt for a value of 18, imitating the relationship between Ether and Wei. This is the value {ERC20} uses, unless {_setupDecimals} is called.     * NOTE: This information is only used for _display_ purposes: it in no way affects any of the arithmetic of the contract, including {IERC20-balanceOf} and {IERC20-transfer}."
      },
      "decreaseAllowance(address,uint256)": {
        "details": "Atomically decreases the allowance granted to `spender` by the caller.     * This is an alternative to {approve} that can be used as a mitigation for problems described in {IERC20-approve}.     * Emits an {Approval} event indicating the updated allowance.     * Requirements:     * - `spender` cannot be the zero address. - `spender` must have allowance for the caller of at least `subtractedValue`."
      },
      "increaseAllowance(address,uint256)": {
        "details": "Atomically increases the allowance granted to `spender` by the caller.     * This is an alternative to {approve} that can be used as a mitigation for problems described in {IERC20-approve}.     * Emits an {Approval} event indicating the updated allowance.     * Requirements:     * - `spender` cannot be the zero address."
      },
      "name()": {
        "details": "Returns the name of the token."
      },
      "owner()": {
        "details": "Returns the address of the current owner."
      },
      "renounceOwnership()": {
        "details": "Leaves the contract without owner. It will not be possible to call `onlyOwner` functions anymore. Can only be called by the current owner.     * NOTE: Renouncing ownership will leave the contract without an owner, thereby removing any functionality that is only available to the owner."
      },
      "symbol()": {
        "details": "Returns the symbol of the token, usually a shorter version of the name."
      },
      "totalSupply()": {
        "details": "See {IERC20-totalSupply}."
      },
      "transfer(address,uint256)": {
        "details": "See {IERC20-transfer}.     * Requirements:     * - `recipient` cannot be the zero address. - the caller must have a balance of at least `amount`."
      },
      "transferFrom(address,address,uint256)": {
        "details": "See {IERC20-transferFrom}.     * Emits an {Approval} event indicating the updated allowance. This is not required by the EIP. See the note at the beginning of {ERC20}.     * Requirements:     * - `sender` and `recipient` cannot be the zero address. - `sender` must have a balance of at least `amount`. - the caller must have allowance for ``sender``'s tokens of at least `amount`."
      },
      "transferOwnership(address)": {
        "details": "Transfers ownership of the contract to a new account (`newOwner`). Can only be called by the current owner."
      }
    },
    "title": "TokenSaleContract - A sale contract of token plus uniswap         implementation that is backed by ether."
  },
  "userdoc": {
    "methods": {
      "issueNonSaleTokens(address,uint256,uint8)": {
        "notice": "Ability to add users after sale ended in nonsaleable blocks"
      }
    }
  }
}