{
  "contractName": "TokenSale",
  "abi": [
    {
      "inputs": [
        {
          "internalType": "uint256",
          "name": "_startTime",
          "type": "uint256"
        },
        {
          "internalType": "uint256",
          "name": "_softCap",
          "type": "uint256"
        },
        {
          "internalType": "uint256",
          "name": "_hardCap",
          "type": "uint256"
        },
        {
          "internalType": "uint256",
          "name": "_minBuy",
          "type": "uint256"
        },
        {
          "internalType": "uint256",
          "name": "_maxBuy",
          "type": "uint256"
        },
        {
          "internalType": "string",
          "name": "_tokenName",
          "type": "string"
        },
        {
          "internalType": "string",
          "name": "_symbol",
          "type": "string"
        }
      ],
      "stateMutability": "nonpayable",
      "type": "constructor"
    },
    {
      "anonymous": false,
      "inputs": [
        {
          "indexed": true,
          "internalType": "address",
          "name": "owner",
          "type": "address"
        },
        {
          "indexed": true,
          "internalType": "address",
          "name": "spender",
          "type": "address"
        },
        {
          "indexed": false,
          "internalType": "uint256",
          "name": "value",
          "type": "uint256"
        }
      ],
      "name": "Approval",
      "type": "event"
    },
    {
      "anonymous": false,
      "inputs": [
        {
          "indexed": true,
          "internalType": "address",
          "name": "account",
          "type": "address"
        },
        {
          "indexed": true,
          "internalType": "uint8",
          "name": "block",
          "type": "uint8"
        },
        {
          "indexed": false,
          "internalType": "uint256",
          "name": "amount",
          "type": "uint256"
        }
      ],
      "name": "Buy",
      "type": "event"
    },
    {
      "anonymous": false,
      "inputs": [
        {
          "indexed": false,
          "internalType": "uint256",
          "name": "endTime",
          "type": "uint256"
        }
      ],
      "name": "EndSale",
      "type": "event"
    },
    {
      "anonymous": false,
      "inputs": [
        {
          "indexed": true,
          "internalType": "address",
          "name": "account",
          "type": "address"
        },
        {
          "indexed": false,
          "internalType": "uint256",
          "name": "amount",
          "type": "uint256"
        },
        {
          "indexed": true,
          "internalType": "uint8",
          "name": "block",
          "type": "uint8"
        }
      ],
      "name": "Issue",
      "type": "event"
    },
    {
      "anonymous": false,
      "inputs": [
        {
          "indexed": true,
          "internalType": "address",
          "name": "previousOwner",
          "type": "address"
        },
        {
          "indexed": true,
          "internalType": "address",
          "name": "newOwner",
          "type": "address"
        }
      ],
      "name": "OwnershipTransferred",
      "type": "event"
    },
    {
      "anonymous": false,
      "inputs": [
        {
          "indexed": true,
          "internalType": "address",
          "name": "from",
          "type": "address"
        },
        {
          "indexed": true,
          "internalType": "address",
          "name": "to",
          "type": "address"
        },
        {
          "indexed": false,
          "internalType": "uint256",
          "name": "value",
          "type": "uint256"
        }
      ],
      "name": "Transfer",
      "type": "event"
    },
    {
      "anonymous": false,
      "inputs": [
        {
          "indexed": true,
          "internalType": "address",
          "name": "account",
          "type": "address"
        },
        {
          "indexed": false,
          "internalType": "uint256",
          "name": "amount",
          "type": "uint256"
        },
        {
          "indexed": false,
          "internalType": "uint8",
          "name": "blockId",
          "type": "uint8"
        }
      ],
      "name": "Vesting",
      "type": "event"
    },
    {
      "inputs": [
        {
          "internalType": "address",
          "name": "owner",
          "type": "address"
        },
        {
          "internalType": "address",
          "name": "spender",
          "type": "address"
        }
      ],
      "name": "allowance",
      "outputs": [
        {
          "internalType": "uint256",
          "name": "",
          "type": "uint256"
        }
      ],
      "stateMutability": "view",
      "type": "function"
    },
    {
      "inputs": [
        {
          "internalType": "address",
          "name": "spender",
          "type": "address"
        },
        {
          "internalType": "uint256",
          "name": "amount",
          "type": "uint256"
        }
      ],
      "name": "approve",
      "outputs": [
        {
          "internalType": "bool",
          "name": "",
          "type": "bool"
        }
      ],
      "stateMutability": "nonpayable",
      "type": "function"
    },
    {
      "inputs": [
        {
          "internalType": "address",
          "name": "account",
          "type": "address"
        }
      ],
      "name": "balanceOf",
      "outputs": [
        {
          "internalType": "uint256",
          "name": "",
          "type": "uint256"
        }
      ],
      "stateMutability": "view",
      "type": "function"
    },
    {
      "inputs": [],
      "name": "decimals",
      "outputs": [
        {
          "internalType": "uint8",
          "name": "",
          "type": "uint8"
        }
      ],
      "stateMutability": "view",
      "type": "function"
    },
    {
      "inputs": [
        {
          "internalType": "address",
          "name": "spender",
          "type": "address"
        },
        {
          "internalType": "uint256",
          "name": "subtractedValue",
          "type": "uint256"
        }
      ],
      "name": "decreaseAllowance",
      "outputs": [
        {
          "internalType": "bool",
          "name": "",
          "type": "bool"
        }
      ],
      "stateMutability": "nonpayable",
      "type": "function"
    },
    {
      "inputs": [],
      "name": "endTime",
      "outputs": [
        {
          "internalType": "uint256",
          "name": "",
          "type": "uint256"
        }
      ],
      "stateMutability": "view",
      "type": "function"
    },
    {
      "inputs": [
        {
          "internalType": "address",
          "name": "spender",
          "type": "address"
        },
        {
          "internalType": "uint256",
          "name": "addedValue",
          "type": "uint256"
        }
      ],
      "name": "increaseAllowance",
      "outputs": [
        {
          "internalType": "bool",
          "name": "",
          "type": "bool"
        }
      ],
      "stateMutability": "nonpayable",
      "type": "function"
    },
    {
      "inputs": [],
      "name": "name",
      "outputs": [
        {
          "internalType": "string",
          "name": "",
          "type": "string"
        }
      ],
      "stateMutability": "view",
      "type": "function"
    },
    {
      "inputs": [],
      "name": "owner",
      "outputs": [
        {
          "internalType": "address",
          "name": "",
          "type": "address"
        }
      ],
      "stateMutability": "view",
      "type": "function"
    },
    {
      "inputs": [],
      "name": "renounceOwnership",
      "outputs": [],
      "stateMutability": "nonpayable",
      "type": "function"
    },
    {
      "inputs": [
        {
          "internalType": "uint8",
          "name": "",
          "type": "uint8"
        }
      ],
      "name": "saleTokens",
      "outputs": [
        {
          "internalType": "uint256",
          "name": "supply",
          "type": "uint256"
        },
        {
          "internalType": "uint256",
          "name": "lockPeriod",
          "type": "uint256"
        },
        {
          "internalType": "uint256",
          "name": "vestingPeriod",
          "type": "uint256"
        },
        {
          "internalType": "uint256",
          "name": "releasePerDayPerc",
          "type": "uint256"
        },
        {
          "internalType": "uint256",
          "name": "releasePerDayDiv",
          "type": "uint256"
        },
        {
          "internalType": "uint256",
          "name": "releasePerHourPerc",
          "type": "uint256"
        },
        {
          "internalType": "uint256",
          "name": "releasePerHourDiv",
          "type": "uint256"
        },
        {
          "internalType": "uint256",
          "name": "price",
          "type": "uint256"
        },
        {
          "internalType": "uint256",
          "name": "issued",
          "type": "uint256"
        }
      ],
      "stateMutability": "view",
      "type": "function"
    },
    {
      "inputs": [],
      "name": "symbol",
      "outputs": [
        {
          "internalType": "string",
          "name": "",
          "type": "string"
        }
      ],
      "stateMutability": "view",
      "type": "function"
    },
    {
      "inputs": [],
      "name": "totalSupply",
      "outputs": [
        {
          "internalType": "uint256",
          "name": "",
          "type": "uint256"
        }
      ],
      "stateMutability": "view",
      "type": "function"
    },
    {
      "inputs": [
        {
          "internalType": "address",
          "name": "recipient",
          "type": "address"
        },
        {
          "internalType": "uint256",
          "name": "amount",
          "type": "uint256"
        }
      ],
      "name": "transfer",
      "outputs": [
        {
          "internalType": "bool",
          "name": "",
          "type": "bool"
        }
      ],
      "stateMutability": "nonpayable",
      "type": "function"
    },
    {
      "inputs": [
        {
          "internalType": "address",
          "name": "sender",
          "type": "address"
        },
        {
          "internalType": "address",
          "name": "recipient",
          "type": "address"
        },
        {
          "internalType": "uint256",
          "name": "amount",
          "type": "uint256"
        }
      ],
      "name": "transferFrom",
      "outputs": [
        {
          "internalType": "bool",
          "name": "",
          "type": "bool"
        }
      ],
      "stateMutability": "nonpayable",
      "type": "function"
    },
    {
      "inputs": [
        {
          "internalType": "address",
          "name": "newOwner",
          "type": "address"
        }
      ],
      "name": "transferOwnership",
      "outputs": [],
      "stateMutability": "nonpayable",
      "type": "function"
    },
    {
      "inputs": [
        {
          "internalType": "uint256",
          "name": "_amount",
          "type": "uint256"
        },
        {
          "internalType": "address",
          "name": "_token",
          "type": "address"
        },
        {
          "internalType": "address",
          "name": "_to",
          "type": "address"
        }
      ],
      "name": "withdrawERC20",
      "outputs": [],
      "stateMutability": "nonpayable",
      "type": "function"
    },
    {
      "inputs": [],
      "name": "endSale",
      "outputs": [],
      "stateMutability": "nonpayable",
      "type": "function"
    },
    {
      "inputs": [
        {
          "internalType": "address",
          "name": "account",
          "type": "address"
        },
        {
          "internalType": "uint256",
          "name": "amount",
          "type": "uint256"
        },
        {
          "internalType": "uint8",
          "name": "_block",
          "type": "uint8"
        }
      ],
      "name": "issueNonSaleTokens",
      "outputs": [],
      "stateMutability": "nonpayable",
      "type": "function"
    },
    {
      "inputs": [
        {
          "internalType": "uint8",
          "name": "_block",
          "type": "uint8"
        }
      ],
      "name": "buyTokens",
      "outputs": [],
      "stateMutability": "payable",
      "type": "function"
    },
    {
      "inputs": [
        {
          "internalType": "uint8",
          "name": "_block",
          "type": "uint8"
        }
      ],
      "name": "claim",
      "outputs": [
        {
          "internalType": "uint256",
          "name": "",
          "type": "uint256"
        }
      ],
      "stateMutability": "nonpayable",
      "type": "function"
    },
    {
      "inputs": [
        {
          "internalType": "uint256",
          "name": "amount",
          "type": "uint256"
        },
        {
          "internalType": "uint256",
          "name": "percentage",
          "type": "uint256"
        },
        {
          "internalType": "uint256",
          "name": "div",
          "type": "uint256"
        }
      ],
      "name": "perCalc",
      "outputs": [
        {
          "internalType": "uint256",
          "name": "value",
          "type": "uint256"
        }
      ],
      "stateMutability": "pure",
      "type": "function"
    },
    {
      "inputs": [
        {
          "internalType": "address",
          "name": "account",
          "type": "address"
        }
      ],
      "name": "balanceOfBlock",
      "outputs": [
        {
          "internalType": "uint256",
          "name": "_amount",
          "type": "uint256"
        },
        {
          "internalType": "uint256",
          "name": "_block",
          "type": "uint256"
        }
      ],
      "stateMutability": "view",
      "type": "function"
    },
    {
      "inputs": [
        {
          "internalType": "address payable",
          "name": "account",
          "type": "address"
        },
        {
          "internalType": "uint256",
          "name": "amount",
          "type": "uint256"
        }
      ],
      "name": "referalReward",
      "outputs": [],
      "stateMutability": "nonpayable",
      "type": "function"
    },
    {
      "inputs": [
        {
          "internalType": "address payable",
          "name": "account",
          "type": "address"
        }
      ],
      "name": "uniswapEthWithdraw",
      "outputs": [],
      "stateMutability": "nonpayable",
      "type": "function"
    },
    {
      "inputs": [
        {
          "internalType": "address payable",
          "name": "_wallet",
          "type": "address"
        }
      ],
      "name": "companyEthWithdraw",
      "outputs": [],
      "stateMutability": "nonpayable",
      "type": "function"
    },
    {
      "inputs": [],
      "name": "ethBalanceOfReferalReward",
      "outputs": [
        {
          "internalType": "uint256",
          "name": "",
          "type": "uint256"
        }
      ],
      "stateMutability": "view",
      "type": "function"
    },
    {
      "inputs": [],
      "name": "ethBalanceOfUniswap",
      "outputs": [
        {
          "internalType": "uint256",
          "name": "",
          "type": "uint256"
        }
      ],
      "stateMutability": "view",
      "type": "function"
    },
    {
      "inputs": [],
      "name": "ethBalanceOfContract",
      "outputs": [
        {
          "internalType": "uint256",
          "name": "",
          "type": "uint256"
        }
      ],
      "stateMutability": "view",
      "type": "function"
    },
    {
      "inputs": [
        {
          "internalType": "uint256",
          "name": "_minBuy",
          "type": "uint256"
        },
        {
          "internalType": "uint256",
          "name": "_maxBuy",
          "type": "uint256"
        }
      ],
      "name": "setBuyLimits",
      "outputs": [],
      "stateMutability": "nonpayable",
      "type": "function"
    },
    {
      "inputs": [
        {
          "internalType": "uint256",
          "name": "_ethPrice",
          "type": "uint256"
        }
      ],
      "name": "setEthPrice",
      "outputs": [],
      "stateMutability": "nonpayable",
      "type": "function"
    },
    {
      "inputs": [
        {
          "internalType": "uint256",
          "name": "_startTime",
          "type": "uint256"
        }
      ],
      "name": "setSaleStartTime",
      "outputs": [],
      "stateMutability": "nonpayable",
      "type": "function"
    },
    {
      "inputs": [
        {
          "internalType": "uint256",
          "name": "_time",
          "type": "uint256"
        }
      ],
      "name": "setEndTime",
      "outputs": [],
      "stateMutability": "nonpayable",
      "type": "function"
    }
  ],
  "bytecode": "0x60806040523480156200001157600080fd5b5060405162004c2f38038062004c2f833981810160405260e08110156200003757600080fd5b810190808051906020019092919080519060200190929190805190602001909291908051906020019092919080519060200190929190805160405193929190846401000000008211156200008a57600080fd5b83820191506020820185811115620000a157600080fd5b8251866001820283011164010000000082111715620000bf57600080fd5b8083526020830192505050908051906020019080838360005b83811015620000f5578082015181840152602081019050620000d8565b50505050905090810190601f168015620001235780820380516001836020036101000a031916815260200191505b50604052602001805160405193929190846401000000008211156200014757600080fd5b838201915060208201858111156200015e57600080fd5b82518660018202830111640100000000821117156200017c57600080fd5b8083526020830192505050908051906020019080838360005b83811015620001b257808201518184015260208101905062000195565b50505050905090810190601f168015620001e05780820380516001836020036101000a031916815260200191505b5060405250505081816000620001fb6200032960201b60201c565b9050806000806101000a81548173ffffffffffffffffffffffffffffffffffffffff021916908373ffffffffffffffffffffffffffffffffffffffff1602179055508073ffffffffffffffffffffffffffffffffffffffff16600073ffffffffffffffffffffffffffffffffffffffff167f8be0079c531659141344cd1fd0a4f28419497f9722a3daafe3b4186f6b6457e060405160405180910390a3508160049080519060200190620002b192919062000ac5565b508060059080519060200190620002ca92919062000ac5565b506012600660006101000a81548160ff021916908360ff1602179055505050866007819055508560098190555084600a8190555083600c8190555082600d819055506200031c6200033160201b60201c565b5050505050505062000b6b565b600033905090565b60405180610120016040528069d3c21bcecceda100000081526020016000815260200162278d00815260200161014e815260200161271081526020016352f325eb815260200164e8d4a510008152602001670214e8348c4f00008152602001600081525060136000600160ff168152602001908152602001600020600082015181600001556020820151816001015560408201518160020155606082015181600301556080820151816004015560a0820151816005015560c0820151816006015560e0820151816007015561010082015181600801559050506040518061012001604052806a01a784379d99db420000008152602001600081526020016212750081526020016102cb8152602001612710815260200163b19279cb815260200164e8d4a5100081526020016702c68af0bb1400008152602001600081525060136000600260ff168152602001908152602001600020600082015181600001556020820151816001015560408201518160020155606082015181600301556080820151816004015560a0820151816005015560c0820151816006015560e0820151816007015561010082015181600801559050506040518061012001604052806a027b46536c66c8e300000081526020016000815260200162093a808152602001608f81526020016103e8815260200164016324f395815260200164e8d4a5100081526020016703782dace9d900008152602001600081525060136000600360ff168152602001908152602001600020600082015181600001556020820151816001015560408201518160020155606082015181600301556080820151816004015560a0820151816005015560c0820151816006015560e0820151816007015561010082015181600801559050506040518061012001604052806a034f086f3b33b6840000008152602001600081526020016000815260200160648152602001606481526020016409b386e0ab815260200164e8d4a510008152602001670429d069189e00008152602001600081525060136000600460ff168152602001908152602001600020600082015181600001556020820151816001015560408201518160020155606082015181600301556080820151816004015560a0820151816005015560c0820151816006015560e08201518160070155610100820151816008015590505060405180610120016040528069d3c21bcecceda1000000815260200162278d00815260200162ed4e00815260200164014699cd97815260200164e8d4a510008152602001630d9bbde6815260200164e8d4a51000815260200160008152602001600081525060136000600560ff168152602001908152602001600020600082015181600001556020820151816001015560408201518160020155606082015181600301556080820151816004015560a0820151816005015560c0820151816006015560e0820151816007015561010082015181600801559050506040518061012001604052806a01a784379d99db420000008152602001600081526020016301e13380815260200163a34ce6cb815260200164e8d4a5100081526020016306cddef3815260200164e8d4a51000815260200160008152602001600081525060136000600660ff168152602001908152602001600020600082015181600001556020820151816001015560408201518160020155606082015181600301556080820151816004015560a0820151816005015560c0820151816006015560e0820151816007015561010082015181600801559050506040518061012001604052806a01a784379d99db42000000815260200162ed4e0081526020016305a39a808152602001600181526020016103e8815260200163027bc86b815260200164e8d4a51000815260200160008152602001600081525060136000600760ff168152602001908152602001600020600082015181600001556020820151816001015560408201518160020155606082015181600301556080820151816004015560a0820151816005015560c0820151816006015560e0820151816007015561010082015181600801559050506040518061012001604052806969e10de76676d08000008152602001600081526020016301e13380815260200163a34ce6cb815260200164e8d4a5100081526020016306cddef3815260200164e8d4a51000815260200160008152602001600081525060136000600860ff168152602001908152602001600020600082015181600001556020820151816001015560408201518160020155606082015181600301556080820151816004015560a0820151816005015560c0820151816006015560e0820151816007015561010082015181600801559050506040518061012001604052806969e10de76676d0800000815260200162ed4e00815260200162ed4e008152602001606c81526020016127108152602001602d8152602001620186a0815260200160008152602001600081525060136000600960ff168152602001908152602001600020600082015181600001556020820151816001015560408201518160020155606082015181600301556080820151816004015560a0820151816005015560c0820151816006015560e082015181600701556101008201518160080155905050565b828054600181600116156101000203166002900490600052602060002090601f016020900481019282601f1062000b0857805160ff191683800117855562000b39565b8280016001018555821562000b39579182015b8281111562000b3857825182559160200191906001019062000b1b565b5b50905062000b48919062000b4c565b5090565b5b8082111562000b6757600081600090555060010162000b4d565b5090565b6140b48062000b7b6000396000f3fe6080604052600436106101ed5760003560e01c806376edf5761161010d578063a9f113c2116100a0578063ccb98ffc1161006f578063ccb98ffc14610b31578063d1d22f9814610b6c578063d73aca2c14610b97578063dd62ed3e14610bf2578063f2fde38b14610c77576101ed565b8063a9f113c2146109fb578063bba5b24e14610a4c578063c37d0eda14610a7d578063c5816f1914610ae0576101ed565b806395d89b41116100dc57806395d89b41146108215780639d6c7c35146108b1578063a457c2d714610919578063a9059cbb1461098a576101ed565b806376edf576146107385780638307cdd8146107635780638da5cb5b1461078e57806395d4063f146107cf576101ed565b80633197cbb611610185578063525f8a5c11610154578063525f8a5c146106065780635d29dab41461064157806370a08231146106bc578063715018a614610721576101ed565b80633197cbb6146104c9578063380d831b146104f4578063395093511461050b5780634ea6fc561461057c576101ed565b806318160ddd116101c157806318160ddd146103735780631cc528341461039e57806323b872dd1461040a578063313ce5671461049b576101ed565b80629f9262146101f257806306fdde031461022d578063095ea7b3146102bd5780630da2c5f01461032e575b600080fd5b3480156101fe57600080fd5b5061022b6004803603602081101561021557600080fd5b8101908080359060200190929190505050610cc8565b005b34801561023957600080fd5b50610242610d9a565b6040518080602001828103825283818151815260200191508051906020019080838360005b83811015610282578082015181840152602081019050610267565b50505050905090810190601f1680156102af5780820380516001836020036101000a031916815260200191505b509250505060405180910390f35b3480156102c957600080fd5b50610316600480360360408110156102e057600080fd5b81019080803573ffffffffffffffffffffffffffffffffffffffff16906020019092919080359060200190929190505050610e3c565b60405180821515815260200191505060405180910390f35b34801561033a57600080fd5b506103716004803603604081101561035157600080fd5b810190808035906020019092919080359060200190929190505050610e5a565b005b34801561037f57600080fd5b50610388610f34565b6040518082815260200191505060405180910390f35b3480156103aa57600080fd5b506103ed600480360360208110156103c157600080fd5b81019080803573ffffffffffffffffffffffffffffffffffffffff169060200190929190505050610f3e565b604051808381526020018281526020019250505060405180910390f35b34801561041657600080fd5b506104836004803603606081101561042d57600080fd5b81019080803573ffffffffffffffffffffffffffffffffffffffff169060200190929190803573ffffffffffffffffffffffffffffffffffffffff16906020019092919080359060200190929190505050610fe3565b60405180821515815260200191505060405180910390f35b3480156104a757600080fd5b506104b06110bc565b604051808260ff16815260200191505060405180910390f35b3480156104d557600080fd5b506104de6110d3565b6040518082815260200191505060405180910390f35b34801561050057600080fd5b506105096110d9565b005b34801561051757600080fd5b506105646004803603604081101561052e57600080fd5b81019080803573ffffffffffffffffffffffffffffffffffffffff169060200190929190803590602001909291905050506113d3565b60405180821515815260200191505060405180910390f35b34801561058857600080fd5b506105b86004803603602081101561059f57600080fd5b81019080803560ff169060200190929190505050611486565b604051808a8152602001898152602001888152602001878152602001868152602001858152602001848152602001838152602001828152602001995050505050505050505060405180910390f35b34801561061257600080fd5b5061063f6004803603602081101561062957600080fd5b81019080803590602001909291905050506114d4565b005b34801561064d57600080fd5b506106ba6004803603606081101561066457600080fd5b8101908080359060200190929190803573ffffffffffffffffffffffffffffffffffffffff169060200190929190803573ffffffffffffffffffffffffffffffffffffffff16906020019092919050505061161d565b005b3480156106c857600080fd5b5061070b600480360360208110156106df57600080fd5b81019080803573ffffffffffffffffffffffffffffffffffffffff16906020019092919050505061179d565b6040518082815260200191505060405180910390f35b34801561072d57600080fd5b506107366117e6565b005b34801561074457600080fd5b5061074d61196c565b6040518082815260200191505060405180910390f35b34801561076f57600080fd5b50610778611976565b6040518082815260200191505060405180910390f35b34801561079a57600080fd5b506107a3611980565b604051808273ffffffffffffffffffffffffffffffffffffffff16815260200191505060405180910390f35b3480156107db57600080fd5b5061080b600480360360208110156107f257600080fd5b81019080803560ff1690602001909291905050506119a9565b6040518082815260200191505060405180910390f35b34801561082d57600080fd5b50610836612206565b6040518080602001828103825283818151815260200191508051906020019080838360005b8381101561087657808201518184015260208101905061085b565b50505050905090810190601f1680156108a35780820380516001836020036101000a031916815260200191505b509250505060405180910390f35b3480156108bd57600080fd5b50610917600480360360608110156108d457600080fd5b81019080803573ffffffffffffffffffffffffffffffffffffffff16906020019092919080359060200190929190803560ff1690602001909291905050506122a8565b005b34801561092557600080fd5b506109726004803603604081101561093c57600080fd5b81019080803573ffffffffffffffffffffffffffffffffffffffff1690602001909291908035906020019092919050505061268c565b60405180821515815260200191505060405180910390f35b34801561099657600080fd5b506109e3600480360360408110156109ad57600080fd5b81019080803573ffffffffffffffffffffffffffffffffffffffff16906020019092919080359060200190929190505050612759565b60405180821515815260200191505060405180910390f35b348015610a0757600080fd5b50610a4a60048036036020811015610a1e57600080fd5b81019080803573ffffffffffffffffffffffffffffffffffffffff169060200190929190505050612777565b005b610a7b60048036036020811015610a6257600080fd5b81019080803560ff16906020019092919050505061290b565b005b348015610a8957600080fd5b50610aca60048036036060811015610aa057600080fd5b81019080803590602001909291908035906020019092919080359060200190929190505050612e96565b6040518082815260200191505060405180910390f35b348015610aec57600080fd5b50610b2f60048036036020811015610b0357600080fd5b81019080803573ffffffffffffffffffffffffffffffffffffffff169060200190929190505050612ead565b005b348015610b3d57600080fd5b50610b6a60048036036020811015610b5457600080fd5b8101908080359060200190929190505050613041565b005b348015610b7857600080fd5b50610b81613113565b6040518082815260200191505060405180910390f35b348015610ba357600080fd5b50610bf060048036036040811015610bba57600080fd5b81019080803573ffffffffffffffffffffffffffffffffffffffff1690602001909291908035906020019092919050505061311b565b005b348015610bfe57600080fd5b50610c6160048036036040811015610c1557600080fd5b81019080803573ffffffffffffffffffffffffffffffffffffffff169060200190929190803573ffffffffffffffffffffffffffffffffffffffff1690602001909291905050506132c1565b6040518082815260200191505060405180910390f35b348015610c8357600080fd5b50610cc660048036036020811015610c9a57600080fd5b81019080803573ffffffffffffffffffffffffffffffffffffffff169060200190929190505050613348565b005b610cd0613553565b73ffffffffffffffffffffffffffffffffffffffff1660008054906101000a900473ffffffffffffffffffffffffffffffffffffffff1673ffffffffffffffffffffffffffffffffffffffff1614610d90576040517f08c379a00000000000000000000000000000000000000000000000000000000081526004018080602001828103825260208152602001807f4f776e61626c653a2063616c6c6572206973206e6f7420746865206f776e657281525060200191505060405180910390fd5b80600b8190555050565b606060048054600181600116156101000203166002900480601f016020809104026020016040519081016040528092919081815260200182805460018160011615610100020316600290048015610e325780601f10610e0757610100808354040283529160200191610e32565b820191906000526020600020905b815481529060010190602001808311610e1557829003601f168201915b5050505050905090565b6000610e50610e49613553565b848461355b565b6001905092915050565b610e62613553565b73ffffffffffffffffffffffffffffffffffffffff1660008054906101000a900473ffffffffffffffffffffffffffffffffffffffff1673ffffffffffffffffffffffffffffffffffffffff1614610f22576040517f08c379a00000000000000000000000000000000000000000000000000000000081526004018080602001828103825260208152602001807f4f776e61626c653a2063616c6c6572206973206e6f7420746865206f776e657281525060200191505060405180910390fd5b81600c8190555080600d819055505050565b6000600354905090565b600080601560008473ffffffffffffffffffffffffffffffffffffffff1673ffffffffffffffffffffffffffffffffffffffff16815260200190815260200160002060000154601560008573ffffffffffffffffffffffffffffffffffffffff1673ffffffffffffffffffffffffffffffffffffffff16815260200190815260200160002060030160009054906101000a900460ff168060ff16905091509150915091565b6000610ff0848484613752565b6110b184610ffc613553565b6110ac85604051806060016040528060288152602001613fc060289139600260008b73ffffffffffffffffffffffffffffffffffffffff1673ffffffffffffffffffffffffffffffffffffffff1681526020019081526020016000206000611062613553565b73ffffffffffffffffffffffffffffffffffffffff1673ffffffffffffffffffffffffffffffffffffffff16815260200190815260200160002054613a179092919063ffffffff16565b61355b565b600190509392505050565b6000600660009054906101000a900460ff16905090565b60085481565b6110e1613553565b73ffffffffffffffffffffffffffffffffffffffff1660008054906101000a900473ffffffffffffffffffffffffffffffffffffffff1673ffffffffffffffffffffffffffffffffffffffff16146111a1576040517f08c379a00000000000000000000000000000000000000000000000000000000081526004018080602001828103825260208152602001807f4f776e61626c653a2063616c6c6572206973206e6f7420746865206f776e657281525060200191505060405180910390fd5b600754421015611219576040517f08c379a00000000000000000000000000000000000000000000000000000000081526004018080602001828103825260148152602001807f73616c65206e6f7420796574207374617274656400000000000000000000000081525060200191505060405180910390fd5b601260009054906101000a900460ff161561129c576040517f08c379a000000000000000000000000000000000000000000000000000000000815260040180806020018281038252600a8152602001807f73616c6520656e6465640000000000000000000000000000000000000000000081525060200191505060405180910390fd5b6001601260006101000a81548160ff021916908315150217905550426008819055506000600190505b60048160ff161161135b57601360008260ff1660ff16815260200190815260200160002060080154601360008360ff1660ff16815260200190815260200160002060000154111561134e57601360008260ff1660ff16815260200190815260200160002060080154601360008360ff1660ff168152602001908152602001600020600001819055505b80806001019150506112c5565b5061136b476102a36103e8612e96565b60108190555061137e47601e6064612e96565b600e819055506113924760196103e8612e96565b600f819055507f94173af9e1cd5351395663e6a7838552ea54f5233d0c38bc46de5f4915b302bf6008546040518082815260200191505060405180910390a1565b600061147c6113e0613553565b8461147785600260006113f1613553565b73ffffffffffffffffffffffffffffffffffffffff1673ffffffffffffffffffffffffffffffffffffffff16815260200190815260200160002060008973ffffffffffffffffffffffffffffffffffffffff1673ffffffffffffffffffffffffffffffffffffffff16815260200190815260200160002054613ad790919063ffffffff16565b61355b565b6001905092915050565b60136020528060005260406000206000915090508060000154908060010154908060020154908060030154908060040154908060050154908060060154908060070154908060080154905089565b6114dc613553565b73ffffffffffffffffffffffffffffffffffffffff1660008054906101000a900473ffffffffffffffffffffffffffffffffffffffff1673ffffffffffffffffffffffffffffffffffffffff161461159c576040517f08c379a00000000000000000000000000000000000000000000000000000000081526004018080602001828103825260208152602001807f4f776e61626c653a2063616c6c6572206973206e6f7420746865206f776e657281525060200191505060405180910390fd5b6007544211611613576040517f08c379a00000000000000000000000000000000000000000000000000000000081526004018080602001828103825260138152602001807f73616c6520616c7265617920737461727465640000000000000000000000000081525060200191505060405180910390fd5b8060078190555050565b611625613553565b73ffffffffffffffffffffffffffffffffffffffff1660008054906101000a900473ffffffffffffffffffffffffffffffffffffffff1673ffffffffffffffffffffffffffffffffffffffff16146116e5576040517f08c379a00000000000000000000000000000000000000000000000000000000081526004018080602001828103825260208152602001807f4f776e61626c653a2063616c6c6572206973206e6f7420746865206f776e657281525060200191505060405180910390fd5b60008290508073ffffffffffffffffffffffffffffffffffffffff1663a9059cbb83866040518363ffffffff1660e01b8152600401808373ffffffffffffffffffffffffffffffffffffffff16815260200182815260200192505050602060405180830381600087803b15801561175b57600080fd5b505af115801561176f573d6000803e3d6000fd5b505050506040513d602081101561178557600080fd5b81019080805190602001909291905050505050505050565b6000600160008373ffffffffffffffffffffffffffffffffffffffff1673ffffffffffffffffffffffffffffffffffffffff168152602001908152602001600020549050919050565b6117ee613553565b73ffffffffffffffffffffffffffffffffffffffff1660008054906101000a900473ffffffffffffffffffffffffffffffffffffffff1673ffffffffffffffffffffffffffffffffffffffff16146118ae576040517f08c379a00000000000000000000000000000000000000000000000000000000081526004018080602001828103825260208152602001807f4f776e61626c653a2063616c6c6572206973206e6f7420746865206f776e657281525060200191505060405180910390fd5b600073ffffffffffffffffffffffffffffffffffffffff1660008054906101000a900473ffffffffffffffffffffffffffffffffffffffff1673ffffffffffffffffffffffffffffffffffffffff167f8be0079c531659141344cd1fd0a4f28419497f9722a3daafe3b4186f6b6457e060405160405180910390a360008060006101000a81548173ffffffffffffffffffffffffffffffffffffffff021916908373ffffffffffffffffffffffffffffffffffffffff160217905550565b6000600f54905090565b6000600e54905090565b60008060009054906101000a900473ffffffffffffffffffffffffffffffffffffffff16905090565b6000601260009054906101000a900460ff1680156119e6575042600854601360008560ff1660ff1681526020019081526020016000206001015401105b611a58576040517f08c379a00000000000000000000000000000000000000000000000000000000081526004018080602001828103825260198152602001807f76657374696e672069736e27742073746172746564207965740000000000000081525060200191505060405180910390fd5b6000601560003373ffffffffffffffffffffffffffffffffffffffff1673ffffffffffffffffffffffffffffffffffffffff16815260200190815260200160002060020154601560003373ffffffffffffffffffffffffffffffffffffffff1673ffffffffffffffffffffffffffffffffffffffff168152602001908152602001600020600001540390508260ff16601560003373ffffffffffffffffffffffffffffffffffffffff1673ffffffffffffffffffffffffffffffffffffffff16815260200190815260200160002060030160009054906101000a900460ff1660ff16148015611b475750600081115b611bb9576040517f08c379a00000000000000000000000000000000000000000000000000000000081526004018080602001828103825260118152602001807f6e6f20746f6b656e7320746f207665737400000000000000000000000000000081525060200191505060405180910390fd5b6000806000601560003373ffffffffffffffffffffffffffffffffffffffff1673ffffffffffffffffffffffffffffffffffffffff168152602001908152602001600020600101541415611c5557611c4e610e10611c3e600854601360008a60ff1660ff16815260200190815260200160002060010154613ad790919063ffffffff16565b4203613b5f90919063ffffffff16565b9150611cb1565b611cae610e10601560003373ffffffffffffffffffffffffffffffffffffffff1673ffffffffffffffffffffffffffffffffffffffff168152602001908152602001600020600101544203613b5f90919063ffffffff16565b91505b60008211611d0a576040517f08c379a00000000000000000000000000000000000000000000000000000000081526004018080602001828103825260298152602001806140316029913960400191505060405180910390fd5b6000611d3662015180611d28610e1086613ba990919063ffffffff16565b613b5f90919063ffffffff16565b90506000811115611e1c57611dc6601560003373ffffffffffffffffffffffffffffffffffffffff1673ffffffffffffffffffffffffffffffffffffffff16815260200190815260200160002060000154601360008960ff1660ff16815260200190815260200160002060030154601360008a60ff1660ff16815260200190815260200160002060040154612e96565b9150611ddb8183613ba990919063ffffffff16565b9150611e19611e0a610e10611dfc6201518085613ba990919063ffffffff16565b613b5f90919063ffffffff16565b84613c2f90919063ffffffff16565b92505b600080841115611ed557611eab601560003373ffffffffffffffffffffffffffffffffffffffff1673ffffffffffffffffffffffffffffffffffffffff16815260200190815260200160002060000154601360008a60ff1660ff16815260200190815260200160002060050154601360008b60ff1660ff16815260200190815260200160002060060154612e96565b9050611ed2611ec38583613ba990919063ffffffff16565b84613ad790919063ffffffff16565b92505b60008311611f4b576040517f08c379a00000000000000000000000000000000000000000000000000000000081526004018080602001828103825260168152602001807f746f6b656e7320746f6f206c6f7720746f20766573740000000000000000000081525060200191505060405180910390fd5b42601560003373ffffffffffffffffffffffffffffffffffffffff1673ffffffffffffffffffffffffffffffffffffffff168152602001908152602001600020600101819055508285106120fa57611fee83601560003373ffffffffffffffffffffffffffffffffffffffff1673ffffffffffffffffffffffffffffffffffffffff16815260200190815260200160002060020154613ad790919063ffffffff16565b601560003373ffffffffffffffffffffffffffffffffffffffff1673ffffffffffffffffffffffffffffffffffffffff1681526020019081526020016000206002018190555060008386039050818110156120f4576120568185613ad790919063ffffffff16565b93506120ad81601560003373ffffffffffffffffffffffffffffffffffffffff1673ffffffffffffffffffffffffffffffffffffffff16815260200190815260200160002060020154613ad790919063ffffffff16565b601560003373ffffffffffffffffffffffffffffffffffffffff1673ffffffffffffffffffffffffffffffffffffffff168152602001908152602001600020600201819055505b50612199565b84925061215285601560003373ffffffffffffffffffffffffffffffffffffffff1673ffffffffffffffffffffffffffffffffffffffff16815260200190815260200160002060020154613ad790919063ffffffff16565b601560003373ffffffffffffffffffffffffffffffffffffffff1673ffffffffffffffffffffffffffffffffffffffff168152602001908152602001600020600201819055505b6121a33384613c79565b3373ffffffffffffffffffffffffffffffffffffffff167f0c4f56fec0b96b3e1261d4988bc40bfb0a4cb4117732a0533a72a19cac93d2318489604051808381526020018260ff1681526020019250505060405180910390a25050505050919050565b606060058054600181600116156101000203166002900480601f01602080910402602001604051908101604052809291908181526020018280546001816001161561010002031660029004801561229e5780601f106122735761010080835404028352916020019161229e565b820191906000526020600020905b81548152906001019060200180831161228157829003601f168201915b5050505050905090565b6122b0613553565b73ffffffffffffffffffffffffffffffffffffffff1660008054906101000a900473ffffffffffffffffffffffffffffffffffffffff1673ffffffffffffffffffffffffffffffffffffffff1614612370576040517f08c379a00000000000000000000000000000000000000000000000000000000081526004018080602001828103825260208152602001807f4f776e61626c653a2063616c6c6572206973206e6f7420746865206f776e657281525060200191505060405180910390fd5b6000601560008573ffffffffffffffffffffffffffffffffffffffff1673ffffffffffffffffffffffffffffffffffffffff1681526020019081526020016000206000015414612428576040517f08c379a00000000000000000000000000000000000000000000000000000000081526004018080602001828103825260148152602001807f627579657220616c72656164792065786973747300000000000000000000000081525060200191505060405180910390fd5b8060ff16600410801561243e5750600a8160ff16105b6124b0576040517f08c379a000000000000000000000000000000000000000000000000000000000815260040180806020018281038252600d8152602001807f696e76616c696420626c6f636b0000000000000000000000000000000000000081525060200191505060405180910390fd5b604051806080016040528083815260200160008152602001600081526020018260ff16815250601560008573ffffffffffffffffffffffffffffffffffffffff1673ffffffffffffffffffffffffffffffffffffffff16815260200190815260200160002060008201518160000155602082015181600101556040820151816002015560608201518160030160006101000a81548160ff021916908360ff16021790555090505061258682601360008460ff1660ff16815260200190815260200160002060080154613ad790919063ffffffff16565b50601360008260ff1660ff16815260200190815260200160002060080154601360008360ff1660ff168152602001908152602001600020600001541015612635576040517f08c379a000000000000000000000000000000000000000000000000000000000815260040180806020018281038252601b8152602001807f616d6f756e74206578636565647320626c6f636b20737570706c79000000000081525060200191505060405180910390fd5b8060ff168373ffffffffffffffffffffffffffffffffffffffff167f05889627d9496c2dfa862932a52bc77790dc2c287fc4f115342a96e4c2203569846040518082815260200191505060405180910390a3505050565b600061274f612699613553565b8461274a8560405180606001604052806025815260200161405a60259139600260006126c3613553565b73ffffffffffffffffffffffffffffffffffffffff1673ffffffffffffffffffffffffffffffffffffffff16815260200190815260200160002060008a73ffffffffffffffffffffffffffffffffffffffff1673ffffffffffffffffffffffffffffffffffffffff16815260200190815260200160002054613a179092919063ffffffff16565b61355b565b6001905092915050565b600061276d612766613553565b8484613752565b6001905092915050565b61277f613553565b73ffffffffffffffffffffffffffffffffffffffff1660008054906101000a900473ffffffffffffffffffffffffffffffffffffffff1673ffffffffffffffffffffffffffffffffffffffff161461283f576040517f08c379a00000000000000000000000000000000000000000000000000000000081526004018080602001828103825260208152602001807f4f776e61626c653a2063616c6c6572206973206e6f7420746865206f776e657281525060200191505060405180910390fd5b6000601054116128b7576040517f08c379a00000000000000000000000000000000000000000000000000000000081526004018080602001828103825260128152602001807f6e6f2065746820746f207769746864726177000000000000000000000000000081525060200191505060405180910390fd5b8073ffffffffffffffffffffffffffffffffffffffff166108fc6010549081150290604051600060405180830381858888f193505050501580156128ff573d6000803e3d6000fd5b50600060108190555050565b600754421015612983576040517f08c379a00000000000000000000000000000000000000000000000000000000081526004018080602001828103825260148152602001807f73616c65206e6f7420796574207374617274656400000000000000000000000081525060200191505060405180910390fd5b601260009054906101000a900460ff1615612a06576040517f08c379a000000000000000000000000000000000000000000000000000000000815260040180806020018281038252600a8152602001807f73616c6520656e6465640000000000000000000000000000000000000000000081525060200191505060405180910390fd5b6000601560003373ffffffffffffffffffffffffffffffffffffffff1673ffffffffffffffffffffffffffffffffffffffff1681526020019081526020016000206000015414612abe576040517f08c379a00000000000000000000000000000000000000000000000000000000081526004018080602001828103825260148152602001807f627579657220616c72656164792065786973747300000000000000000000000081525060200191505060405180910390fd5b8060ff166000108015612ad4575060058160ff16105b612b46576040517f08c379a000000000000000000000000000000000000000000000000000000000815260040180806020018281038252600d8152602001807f696e76616c696420626c6f636b0000000000000000000000000000000000000081525060200191505060405180910390fd5b6000601360008360ff1660ff168152602001908152602001600020600701543481612b6d57fe5b049050670de0b6b3a76400008102905080600c541115612bf5576040517f08c379a000000000000000000000000000000000000000000000000000000000815260040180806020018281038252600e8152602001807f616d6f756e7420746f6f206c6f7700000000000000000000000000000000000081525060200191505060405180910390fd5b600d54811115612c6d576040517f08c379a000000000000000000000000000000000000000000000000000000000815260040180806020018281038252600f8152602001807f616d6f756e7420746f6f2068696768000000000000000000000000000000000081525060200191505060405180910390fd5b604051806080016040528082815260200160008152602001600081526020018360ff16815250601560003373ffffffffffffffffffffffffffffffffffffffff1673ffffffffffffffffffffffffffffffffffffffff16815260200190815260200160002060008201518160000155602082015181600101556040820151816002015560608201518160030160006101000a81548160ff021916908360ff160217905550905050612d4381601360008560ff1660ff16815260200190815260200160002060080154613ad790919063ffffffff16565b601360008460ff1660ff16815260200190815260200160002060080181905550601360008360ff1660ff16815260200190815260200160002060080154601360008460ff1660ff168152602001908152602001600020600001541015612e11576040517f08c379a00000000000000000000000000000000000000000000000000000000081526004018080602001828103825260158152602001807f616d6f756e74206578636565647320737570706c79000000000000000000000081525060200191505060405180910390fd5b612e2681601154613ad790919063ffffffff16565b601181905550600a5460115410612e4057612e3f6110d9565b5b8160ff163373ffffffffffffffffffffffffffffffffffffffff167f64a6cdb9816f7d15a3e26b2fcd226b68a8b47e548cd046d211ad5b5d85ae9f2b836040518082815260200191505060405180910390a35050565b60008183850281612ea357fe5b0490509392505050565b612eb5613553565b73ffffffffffffffffffffffffffffffffffffffff1660008054906101000a900473ffffffffffffffffffffffffffffffffffffffff1673ffffffffffffffffffffffffffffffffffffffff1614612f75576040517f08c379a00000000000000000000000000000000000000000000000000000000081526004018080602001828103825260208152602001807f4f776e61626c653a2063616c6c6572206973206e6f7420746865206f776e657281525060200191505060405180910390fd5b6000600e5411612fed576040517f08c379a00000000000000000000000000000000000000000000000000000000081526004018080602001828103825260108152602001807f6e6f2066756e647320746f2073656e640000000000000000000000000000000081525060200191505060405180910390fd5b8073ffffffffffffffffffffffffffffffffffffffff166108fc600e549081150290604051600060405180830381858888f19350505050158015613035573d6000803e3d6000fd5b506000600e8190555050565b613049613553565b73ffffffffffffffffffffffffffffffffffffffff1660008054906101000a900473ffffffffffffffffffffffffffffffffffffffff1673ffffffffffffffffffffffffffffffffffffffff1614613109576040517f08c379a00000000000000000000000000000000000000000000000000000000081526004018080602001828103825260208152602001807f4f776e61626c653a2063616c6c6572206973206e6f7420746865206f776e657281525060200191505060405180910390fd5b8060088190555050565b600047905090565b613123613553565b73ffffffffffffffffffffffffffffffffffffffff1660008054906101000a900473ffffffffffffffffffffffffffffffffffffffff1673ffffffffffffffffffffffffffffffffffffffff16146131e3576040517f08c379a00000000000000000000000000000000000000000000000000000000081526004018080602001828103825260208152602001807f4f776e61626c653a2063616c6c6572206973206e6f7420746865206f776e657281525060200191505060405180910390fd5b6000600f541161325b576040517f08c379a00000000000000000000000000000000000000000000000000000000081526004018080602001828103825260158152602001807f6e6f2066756e6473206c65667420746f2073656e64000000000000000000000081525060200191505060405180910390fd5b8173ffffffffffffffffffffffffffffffffffffffff166108fc829081150290604051600060405180830381858888f193505050501580156132a1573d6000803e3d6000fd5b506132b781600f54613c2f90919063ffffffff16565b600f819055505050565b6000600260008473ffffffffffffffffffffffffffffffffffffffff1673ffffffffffffffffffffffffffffffffffffffff16815260200190815260200160002060008373ffffffffffffffffffffffffffffffffffffffff1673ffffffffffffffffffffffffffffffffffffffff16815260200190815260200160002054905092915050565b613350613553565b73ffffffffffffffffffffffffffffffffffffffff1660008054906101000a900473ffffffffffffffffffffffffffffffffffffffff1673ffffffffffffffffffffffffffffffffffffffff1614613410576040517f08c379a00000000000000000000000000000000000000000000000000000000081526004018080602001828103825260208152602001807f4f776e61626c653a2063616c6c6572206973206e6f7420746865206f776e657281525060200191505060405180910390fd5b600073ffffffffffffffffffffffffffffffffffffffff168173ffffffffffffffffffffffffffffffffffffffff161415613496576040517f08c379a0000000000000000000000000000000000000000000000000000000008152600401808060200182810382526026815260200180613f316026913960400191505060405180910390fd5b8073ffffffffffffffffffffffffffffffffffffffff1660008054906101000a900473ffffffffffffffffffffffffffffffffffffffff1673ffffffffffffffffffffffffffffffffffffffff167f8be0079c531659141344cd1fd0a4f28419497f9722a3daafe3b4186f6b6457e060405160405180910390a3806000806101000a81548173ffffffffffffffffffffffffffffffffffffffff021916908373ffffffffffffffffffffffffffffffffffffffff16021790555050565b600033905090565b600073ffffffffffffffffffffffffffffffffffffffff168373ffffffffffffffffffffffffffffffffffffffff1614156135e1576040517f08c379a000000000000000000000000000000000000000000000000000000000815260040180806020018281038252602481526020018061400d6024913960400191505060405180910390fd5b600073ffffffffffffffffffffffffffffffffffffffff168273ffffffffffffffffffffffffffffffffffffffff161415613667576040517f08c379a0000000000000000000000000000000000000000000000000000000008152600401808060200182810382526022815260200180613f576022913960400191505060405180910390fd5b80600260008573ffffffffffffffffffffffffffffffffffffffff1673ffffffffffffffffffffffffffffffffffffffff16815260200190815260200160002060008473ffffffffffffffffffffffffffffffffffffffff1673ffffffffffffffffffffffffffffffffffffffff168152602001908152602001600020819055508173ffffffffffffffffffffffffffffffffffffffff168373ffffffffffffffffffffffffffffffffffffffff167f8c5be1e5ebec7d5bd14f71427d1e84f3dd0314c0f7b2291e5b200ac8c7c3b925836040518082815260200191505060405180910390a3505050565b600073ffffffffffffffffffffffffffffffffffffffff168373ffffffffffffffffffffffffffffffffffffffff1614156137d8576040517f08c379a0000000000000000000000000000000000000000000000000000000008152600401808060200182810382526025815260200180613fe86025913960400191505060405180910390fd5b600073ffffffffffffffffffffffffffffffffffffffff168273ffffffffffffffffffffffffffffffffffffffff16141561385e576040517f08c379a0000000000000000000000000000000000000000000000000000000008152600401808060200182810382526023815260200180613f0e6023913960400191505060405180910390fd5b613869838383613e42565b6138d581604051806060016040528060268152602001613f7960269139600160008773ffffffffffffffffffffffffffffffffffffffff1673ffffffffffffffffffffffffffffffffffffffff16815260200190815260200160002054613a179092919063ffffffff16565b600160008573ffffffffffffffffffffffffffffffffffffffff1673ffffffffffffffffffffffffffffffffffffffff1681526020019081526020016000208190555061396a81600160008573ffffffffffffffffffffffffffffffffffffffff1673ffffffffffffffffffffffffffffffffffffffff16815260200190815260200160002054613ad790919063ffffffff16565b600160008473ffffffffffffffffffffffffffffffffffffffff1673ffffffffffffffffffffffffffffffffffffffff168152602001908152602001600020819055508173ffffffffffffffffffffffffffffffffffffffff168373ffffffffffffffffffffffffffffffffffffffff167fddf252ad1be2c89b69c2b068fc378daa952ba7f163c4a11628f55a4df523b3ef836040518082815260200191505060405180910390a3505050565b6000838311158290613ac4576040517f08c379a00000000000000000000000000000000000000000000000000000000081526004018080602001828103825283818151815260200191508051906020019080838360005b83811015613a89578082015181840152602081019050613a6e565b50505050905090810190601f168015613ab65780820380516001836020036101000a031916815260200191505b509250505060405180910390fd5b5060008385039050809150509392505050565b600080828401905083811015613b55576040517f08c379a000000000000000000000000000000000000000000000000000000000815260040180806020018281038252601b8152602001807f536166654d6174683a206164646974696f6e206f766572666c6f77000000000081525060200191505060405180910390fd5b8091505092915050565b6000613ba183836040518060400160405280601a81526020017f536166654d6174683a206469766973696f6e206279207a65726f000000000000815250613e47565b905092915050565b600080831415613bbc5760009050613c29565b6000828402905082848281613bcd57fe5b0414613c24576040517f08c379a0000000000000000000000000000000000000000000000000000000008152600401808060200182810382526021815260200180613f9f6021913960400191505060405180910390fd5b809150505b92915050565b6000613c7183836040518060400160405280601e81526020017f536166654d6174683a207375627472616374696f6e206f766572666c6f770000815250613a17565b905092915050565b600073ffffffffffffffffffffffffffffffffffffffff168273ffffffffffffffffffffffffffffffffffffffff161415613d1c576040517f08c379a000000000000000000000000000000000000000000000000000000000815260040180806020018281038252601f8152602001807f45524332303a206d696e7420746f20746865207a65726f20616464726573730081525060200191505060405180910390fd5b613d2860008383613e42565b613d3d81600354613ad790919063ffffffff16565b600381905550613d9581600160008573ffffffffffffffffffffffffffffffffffffffff1673ffffffffffffffffffffffffffffffffffffffff16815260200190815260200160002054613ad790919063ffffffff16565b600160008473ffffffffffffffffffffffffffffffffffffffff1673ffffffffffffffffffffffffffffffffffffffff168152602001908152602001600020819055508173ffffffffffffffffffffffffffffffffffffffff16600073ffffffffffffffffffffffffffffffffffffffff167fddf252ad1be2c89b69c2b068fc378daa952ba7f163c4a11628f55a4df523b3ef836040518082815260200191505060405180910390a35050565b505050565b60008083118290613ef3576040517f08c379a00000000000000000000000000000000000000000000000000000000081526004018080602001828103825283818151815260200191508051906020019080838360005b83811015613eb8578082015181840152602081019050613e9d565b50505050905090810190601f168015613ee55780820380516001836020036101000a031916815260200191505b509250505060405180910390fd5b506000838581613eff57fe5b04905080915050939250505056fe45524332303a207472616e7366657220746f20746865207a65726f20616464726573734f776e61626c653a206e6577206f776e657220697320746865207a65726f206164647265737345524332303a20617070726f766520746f20746865207a65726f206164647265737345524332303a207472616e7366657220616d6f756e7420657863656564732062616c616e6365536166654d6174683a206d756c7469706c69636174696f6e206f766572666c6f7745524332303a207472616e7366657220616d6f756e74206578636565647320616c6c6f77616e636545524332303a207472616e736665722066726f6d20746865207a65726f206164647265737345524332303a20617070726f76652066726f6d20746865207a65726f20616464726573736e6f7420656e6f7567682074696d6520746f20766573742c20706c6561736520747279206c6174657245524332303a2064656372656173656420616c6c6f77616e63652062656c6f77207a65726fa2646970667358221220445e775ee1ee9dbb528fceb88b94321d50a091e95ea1692ed47707b97be6d02b64736f6c63430007010033",
  "source": "// SPDX-License-Identifier: MIT\n\npragma solidity 0.7.1;\n\nimport \"openzeppelin-solidity/contracts/math/SafeMath.sol\";\nimport \"openzeppelin-solidity/contracts/access/Ownable.sol\";\nimport \"openzeppelin-solidity/contracts/token/ERC20/ERC20.sol\";\n\n\n/// @title  TokenSaleContract - A sale contract of token plus uniswap\n///         implementation that is backed by ether.\ncontract TokenSale is Ownable, ERC20 {\n\nusing SafeMath for uint256;\n\n\nuint256 startTime;\nuint256 public endTime;\nuint256 softCap;\nuint256 hardCap;\nuint256 ethPrice;\nuint256 minBuy;\nuint256 maxBuy;\nuint256 uniswapEth;\nuint256 referalEthReward;\nuint256 ethWithdraw;\nuint256 totalPurchased;\nbool saleEnd;\n\nconstructor(uint _startTime, uint256 _softCap, uint256 _hardCap, uint256 _minBuy, uint256 _maxBuy, string memory _tokenName, string memory _symbol) ERC20(_tokenName,_symbol) {\n    startTime = _startTime;\n    softCap = _softCap;\n    hardCap = _hardCap;\n    minBuy = _minBuy;\n    maxBuy = _maxBuy;\n    initBlocks();\n}\n\n// Allow other ERC20 tokens to be withdrawn from contract in case of accidental deposit, except\n// for the token being sold.\nfunction withdrawERC20(uint256 _amount, address _token, address _to) onlyOwner external {\n    ERC20 erc20 =  ERC20(_token);\n    erc20.transfer(_to, _amount);\n}\n\n// start sale\nmodifier isSaleStarted {\n    require(block.timestamp>= startTime);\n    _;\n}\n// check if sale ended or not\nmodifier isSaleble {\n    require(block.timestamp>= startTime,\"sale not yet started\");\n    require(!saleEnd,\"sale ended\");\n    _;\n}\nstruct TokenBlock {\n    uint supply;\n    uint256 lockPeriod; // days\n    uint256 vestingPeriod;  // days\n    uint releasePerDayPerc;\n    uint releasePerDayDiv;\n    uint releasePerHourPerc;\n    uint releasePerHourDiv;\n    uint price;\n    uint256 issued;\n  //   mapping(address => uint) holders;\n}\nmapping(uint8 => TokenBlock) public saleTokens;\nmapping(uint8 => TokenBlock) nonsaleTokens;\n\nstruct tokens {\n    uint256 amount;\n    uint256 lastVestingTime;\n    uint256 amountVested;\n    uint8 blockId;\n}\nmapping(address => tokens) balance;\n// init blocks 1-4 saleable & 5 nonsaleable blocks\nfunction initBlocks() internal {\n    // setting supply in ehters just to ensure 18 decimals\n    saleTokens[1] = TokenBlock(1000000 ether,0 days, 30 days,334,10000,1391666667,1000000000000,0.15 ether,0);\n    saleTokens[2] = TokenBlock(2000000 ether,0 days, 14 days,715,10000,2979166667,1000000000000,0.20 ether,0);\n    saleTokens[3] = TokenBlock(3000000 ether,0 days, 7 days,143,1000,5958333333,1000000000000,0.25 ether,0);\n    saleTokens[4] = TokenBlock(4000000 ether,0 days, 0 days,100,100,41666666667,1000000000000,0.30 ether,0);\n    saleTokens[5] = TokenBlock(1000000 ether,30 days, 180 days,5479452055,1000000000000,228310502,1000000000000,0 ether,0); // advisors block\n    saleTokens[6] = TokenBlock(2000000 ether,0 days, 365 days,2739726027,1000000000000,114155251,1000000000000,0 ether,0); // marketing/staking block\n    saleTokens[7] = TokenBlock(2000000 ether,180 days, 3*365 days,1,1000,41666667,1000000000000,0 ether,0); // team block\n    saleTokens[8] = TokenBlock(500000 ether,0 days, 365 days,2739726027,1000000000000,114155251,1000000000000,0 ether,0); // bounty block\n    saleTokens[9] = TokenBlock(500000 ether,180 days, 180 days,108,10000,45,100000,0 ether,0); // airdrops block\n}\n\n// end Sale\nfunction endSale() onlyOwner public isSaleble  {\n\n saleEnd = true;\n endTime = block.timestamp;\n // burn tokens which are not issued yet saleable tokens only e.g burnable = supply - issued\n for(uint8 i = 1; i <= 4; i++){\n     if(saleTokens[i].supply > saleTokens[i].issued){\n         // burning extra tokens\n         saleTokens[i].supply = saleTokens[i].issued;\n     }\n }\n // transfer raised eth to respective addresses as per quota\n    // 67.5% to company wallet, 30% for uniswap, 2.5% for referals\n    \n        ethWithdraw = perCalc(address(this).balance,675,1000);\n        uniswapEth = perCalc(address(this).balance,30,100);\n        referalEthReward = perCalc(address(this).balance,25,1000);\n        \n    emit EndSale(endTime);\n    \n}\n/// Ability to add users after sale ended in nonsaleable blocks\nfunction issueNonSaleTokens(address account,uint256 amount, uint8 _block) onlyOwner external {\n    require(balance[account].amount == 0,\"buyer already exists\");\n    require(4 < _block &&_block < 10,\"invalid block\"); \n\n    balance[account] = tokens(amount,0,0,_block);\n    saleTokens[_block].issued.add(amount);\n    require(saleTokens[_block].supply >= saleTokens[_block].issued,\"amount exceeds block supply\");\n    emit Issue(account,amount,_block);\n}\n// to buy tokens\nfunction buyTokens(uint8 _block) isSaleble payable external {\n    \n    require(balance[msg.sender].amount == 0,\"buyer already exists\");\n    require(0 < _block &&_block < 5,\"invalid block\");\n    \n    uint256 amount = msg.value / saleTokens[_block].price;  // price in eth but value in wei :/ (auto conversion)\n    amount = amount * 10 ** 18;\n    require(minBuy <= amount,\"amount too low\");\n    require(amount <= maxBuy,\"amount too high\");\n    \n    balance[msg.sender] = tokens(amount,0,0,_block);\n    saleTokens[_block].issued = saleTokens[_block].issued.add(amount);\n    require(saleTokens[_block].supply >= saleTokens[_block].issued,\"amount exceeds supply\");\n\n    totalPurchased = totalPurchased.add(amount);\n    // in case of hardcap reached end the sale.\n    if(totalPurchased >= hardCap){\n        endSale();\n    }\n\n    emit Buy(msg.sender,_block,amount);\n} \n\n// to claim & vest tokens\nfunction claim(uint8 _block) external returns(uint256) {\n// sale & lock period ended, vesting calculation\nrequire(saleEnd && ( saleTokens[_block].lockPeriod + endTime ) < block.timestamp, \"vesting isn't started yet\");\n\nuint256 unVestedTokens = balance[msg.sender].amount - balance[msg.sender].amountVested;\n\nrequire(balance[msg.sender].blockId == _block && unVestedTokens > 0, \"no tokens to vest\");\n\n// save last vested time and then caclulate current with it to find how much to be vested now and then update last vested time\n// calculate no. hours. obtain 1 hour amount and multiply with total hours\n\nuint256 hour;\nuint256 value;\nif(balance[msg.sender].lastVestingTime == 0){\n     hour = (block.timestamp- (saleTokens[_block].lockPeriod.add(endTime))).div(1 hours);\n}else\n hour = (block.timestamp- (balance[msg.sender].lastVestingTime)).div(1 hours);\n\n require(hour > 0,\"not enough time to vest, please try later\");\n// days to vest\nuint256 day = (hour.mul(1 hours)).div(1 days);\n// remaining hours to vest\nif(day > 0){\n     value = perCalc(balance[msg.sender].amount, saleTokens[_block].releasePerDayPerc, saleTokens[_block].releasePerDayDiv);\n     value = value.mul(day);\n     hour = hour.sub(day.mul(1 days).div(1 hours));\n     \n}\nuint256 valuePerHour;\nif(hour > 0){\n valuePerHour = perCalc(balance[msg.sender].amount, saleTokens[_block].releasePerHourPerc, saleTokens[_block].releasePerHourDiv);\n  \n value = value.add(valuePerHour.mul(hour));\n}\n require(value > 0,\"tokens too low to vest\");\n // last vesting time update\n balance[msg.sender].lastVestingTime = block.timestamp;\n\n// vested tokens deduct from block's tokens\nif(unVestedTokens >= value){\n    balance[msg.sender].amountVested = balance[msg.sender].amountVested.add(value);\n\n    // if dust amount left only\n    uint256 dust = unVestedTokens - value;\n    if(dust < valuePerHour){\n        value = value.add(dust);\n        balance[msg.sender].amountVested = balance[msg.sender].amountVested.add(dust);\n    }\n}else{\n    value = unVestedTokens;\n    balance[msg.sender].amountVested = balance[msg.sender].amountVested.add(unVestedTokens);\n}\n\n// add tokens to erc20 supply as vested tokens to be consumed and used as user wants.\n_mint(msg.sender, value);\n// emit token vested\nemit Vesting(msg.sender,value,_block);\n}\n\n\nfunction perCalc(uint amount, uint percentage, uint div) pure public returns(uint value){\n    value = ( amount * percentage ) / div;\n   // require(value > 0, \"tokens too low to vest\");\n    return value;\n}\nfunction balanceOfBlock(address account) view external returns(uint _amount,uint _block){\n    return (balance[account].amount,balance[account].blockId);\n}\nfunction referalReward(address payable account, uint256 amount) onlyOwner external {\n    require(referalEthReward > 0,\"no funds left to send\");\n    account.transfer(amount);\n    referalEthReward = referalEthReward.sub(amount);\n}\nfunction uniswapEthWithdraw(address payable account) onlyOwner external {\n    require(uniswapEth > 0,\"no funds to send\");\n    account.transfer(uniswapEth);\n    uniswapEth = 0;\n}\nfunction companyEthWithdraw(address payable _wallet) external onlyOwner {\n   require(ethWithdraw > 0, \"no eth to withdraw\") ;\n    _wallet.transfer(ethWithdraw);\n    ethWithdraw = 0;\n\n}\nfunction ethBalanceOfReferalReward( ) view external returns(uint256){\n    return referalEthReward;\n}\nfunction ethBalanceOfUniswap( ) view external returns(uint256){\n    return uniswapEth;\n}\nfunction ethBalanceOfContract( ) view external returns(uint256){\n    return address(this).balance;\n}\n// Let owner of contract set Buy limits max and minimum per user\nfunction setBuyLimits(uint256 _minBuy, uint256 _maxBuy) external onlyOwner {\n    minBuy = _minBuy;\n    maxBuy = _maxBuy;\n}\nfunction setEthPrice(uint _ethPrice) external onlyOwner {\n    ethPrice = _ethPrice;\n}\nfunction setSaleStartTime(uint _startTime) external onlyOwner {\n    require(block.timestamp> startTime,\"sale alreay started\");\n    startTime = _startTime;\n}\n\n// creating this function for test purposes to create vesting scenarios \nfunction setEndTime(uint256 _time) external onlyOwner {\n    endTime = _time;\n}\n \nevent Vesting(address indexed account, uint256 amount, uint8 blockId);\nevent Buy(address indexed account, uint8 indexed block, uint256 amount);\nevent Issue(address indexed account,uint256 amount, uint8 indexed block);\nevent EndSale(uint256 endTime);\n}\n",
  "sourcePath": "/home/malik/AVOLA/eth-sale-contract/contracts/TokenSaleContract.sol",
  "compiler": {
    "name": "solc",
    "version": "0.7.1+commit.f4a555be.Emscripten.clang"
  },
  "schemaVersion": "3.0.23",
  "updatedAt": "2021-01-10T23:35:43.986Z",
  "devdoc": {
    "kind": "dev",
    "methods": {
      "allowance(address,address)": {
        "details": "See {IERC20-allowance}."
      },
      "approve(address,uint256)": {
        "details": "See {IERC20-approve}. Requirements: - `spender` cannot be the zero address."
      },
      "balanceOf(address)": {
        "details": "See {IERC20-balanceOf}."
      },
      "decimals()": {
        "details": "Returns the number of decimals used to get its user representation. For example, if `decimals` equals `2`, a balance of `505` tokens should be displayed to a user as `5,05` (`505 / 10 ** 2`). Tokens usually opt for a value of 18, imitating the relationship between Ether and Wei. This is the value {ERC20} uses, unless {_setupDecimals} is called. NOTE: This information is only used for _display_ purposes: it in no way affects any of the arithmetic of the contract, including {IERC20-balanceOf} and {IERC20-transfer}."
      },
      "decreaseAllowance(address,uint256)": {
        "details": "Atomically decreases the allowance granted to `spender` by the caller. This is an alternative to {approve} that can be used as a mitigation for problems described in {IERC20-approve}. Emits an {Approval} event indicating the updated allowance. Requirements: - `spender` cannot be the zero address. - `spender` must have allowance for the caller of at least `subtractedValue`."
      },
      "increaseAllowance(address,uint256)": {
        "details": "Atomically increases the allowance granted to `spender` by the caller. This is an alternative to {approve} that can be used as a mitigation for problems described in {IERC20-approve}. Emits an {Approval} event indicating the updated allowance. Requirements: - `spender` cannot be the zero address."
      },
      "name()": {
        "details": "Returns the name of the token."
      },
      "owner()": {
        "details": "Returns the address of the current owner."
      },
      "renounceOwnership()": {
        "details": "Leaves the contract without owner. It will not be possible to call `onlyOwner` functions anymore. Can only be called by the current owner. NOTE: Renouncing ownership will leave the contract without an owner, thereby removing any functionality that is only available to the owner."
      },
      "symbol()": {
        "details": "Returns the symbol of the token, usually a shorter version of the name."
      },
      "totalSupply()": {
        "details": "See {IERC20-totalSupply}."
      },
      "transfer(address,uint256)": {
        "details": "See {IERC20-transfer}. Requirements: - `recipient` cannot be the zero address. - the caller must have a balance of at least `amount`."
      },
      "transferFrom(address,address,uint256)": {
        "details": "See {IERC20-transferFrom}. Emits an {Approval} event indicating the updated allowance. This is not required by the EIP. See the note at the beginning of {ERC20}. Requirements: - `sender` and `recipient` cannot be the zero address. - `sender` must have a balance of at least `amount`. - the caller must have allowance for ``sender``'s tokens of at least `amount`."
      },
      "transferOwnership(address)": {
        "details": "Transfers ownership of the contract to a new account (`newOwner`). Can only be called by the current owner."
      }
    },
    "title": "TokenSaleContract - A sale contract of token plus uniswap         implementation that is backed by ether.",
    "version": 1
  },
  "userdoc": {
    "kind": "user",
    "methods": {
      "issueNonSaleTokens(address,uint256,uint8)": {
        "notice": "Ability to add users after sale ended in nonsaleable blocks"
      }
    },
    "version": 1
  }
}