{
  "contractName": "TokenSale",
  "abi": [
    {
      "inputs": [
        {
          "internalType": "uint256",
          "name": "_startTime",
          "type": "uint256"
        },
        {
          "internalType": "uint256",
          "name": "_softCap",
          "type": "uint256"
        },
        {
          "internalType": "uint256",
          "name": "_hardCap",
          "type": "uint256"
        },
        {
          "internalType": "uint256",
          "name": "_minBuy",
          "type": "uint256"
        },
        {
          "internalType": "uint256",
          "name": "_maxBuy",
          "type": "uint256"
        },
        {
          "internalType": "address payable",
          "name": "_companyWallet",
          "type": "address"
        },
        {
          "internalType": "address",
          "name": "_tokenContract",
          "type": "address"
        }
      ],
      "stateMutability": "nonpayable",
      "type": "constructor"
    },
    {
      "anonymous": false,
      "inputs": [
        {
          "indexed": true,
          "internalType": "address",
          "name": "account",
          "type": "address"
        },
        {
          "indexed": true,
          "internalType": "uint8",
          "name": "block",
          "type": "uint8"
        },
        {
          "indexed": false,
          "internalType": "uint256",
          "name": "amount",
          "type": "uint256"
        }
      ],
      "name": "Buy",
      "type": "event"
    },
    {
      "anonymous": false,
      "inputs": [
        {
          "indexed": false,
          "internalType": "uint256",
          "name": "endTime",
          "type": "uint256"
        }
      ],
      "name": "EndSale",
      "type": "event"
    },
    {
      "anonymous": false,
      "inputs": [
        {
          "indexed": true,
          "internalType": "address",
          "name": "account",
          "type": "address"
        },
        {
          "indexed": false,
          "internalType": "uint256",
          "name": "amount",
          "type": "uint256"
        },
        {
          "indexed": true,
          "internalType": "uint8",
          "name": "block",
          "type": "uint8"
        }
      ],
      "name": "Issue",
      "type": "event"
    },
    {
      "anonymous": false,
      "inputs": [
        {
          "indexed": true,
          "internalType": "address",
          "name": "previousOwner",
          "type": "address"
        },
        {
          "indexed": true,
          "internalType": "address",
          "name": "newOwner",
          "type": "address"
        }
      ],
      "name": "OwnershipTransferred",
      "type": "event"
    },
    {
      "anonymous": false,
      "inputs": [
        {
          "indexed": true,
          "internalType": "address",
          "name": "to",
          "type": "address"
        },
        {
          "indexed": false,
          "internalType": "uint256",
          "name": "amount",
          "type": "uint256"
        }
      ],
      "name": "ReferalReward",
      "type": "event"
    },
    {
      "anonymous": false,
      "inputs": [
        {
          "indexed": true,
          "internalType": "address",
          "name": "account",
          "type": "address"
        },
        {
          "indexed": false,
          "internalType": "uint256",
          "name": "amount",
          "type": "uint256"
        },
        {
          "indexed": false,
          "internalType": "uint8",
          "name": "blockId",
          "type": "uint8"
        }
      ],
      "name": "Vesting",
      "type": "event"
    },
    {
      "inputs": [],
      "name": "endTime",
      "outputs": [
        {
          "internalType": "uint256",
          "name": "",
          "type": "uint256"
        }
      ],
      "stateMutability": "view",
      "type": "function"
    },
    {
      "inputs": [],
      "name": "owner",
      "outputs": [
        {
          "internalType": "address",
          "name": "",
          "type": "address"
        }
      ],
      "stateMutability": "view",
      "type": "function"
    },
    {
      "inputs": [],
      "name": "renounceOwnership",
      "outputs": [],
      "stateMutability": "nonpayable",
      "type": "function"
    },
    {
      "inputs": [
        {
          "internalType": "uint8",
          "name": "",
          "type": "uint8"
        }
      ],
      "name": "saleTokens",
      "outputs": [
        {
          "internalType": "uint256",
          "name": "supply",
          "type": "uint256"
        },
        {
          "internalType": "uint256",
          "name": "lockPeriod",
          "type": "uint256"
        },
        {
          "internalType": "uint256",
          "name": "vestingPeriod",
          "type": "uint256"
        },
        {
          "internalType": "uint256",
          "name": "releasePerDayPerc",
          "type": "uint256"
        },
        {
          "internalType": "uint256",
          "name": "releasePerDayDiv",
          "type": "uint256"
        },
        {
          "internalType": "uint256",
          "name": "releasePerHourPerc",
          "type": "uint256"
        },
        {
          "internalType": "uint256",
          "name": "releasePerHourDiv",
          "type": "uint256"
        },
        {
          "internalType": "uint256",
          "name": "price",
          "type": "uint256"
        },
        {
          "internalType": "uint256",
          "name": "issued",
          "type": "uint256"
        }
      ],
      "stateMutability": "view",
      "type": "function"
    },
    {
      "inputs": [
        {
          "internalType": "address",
          "name": "newOwner",
          "type": "address"
        }
      ],
      "name": "transferOwnership",
      "outputs": [],
      "stateMutability": "nonpayable",
      "type": "function"
    },
    {
      "inputs": [
        {
          "internalType": "uint256",
          "name": "_amount",
          "type": "uint256"
        },
        {
          "internalType": "address",
          "name": "_token",
          "type": "address"
        },
        {
          "internalType": "address",
          "name": "_to",
          "type": "address"
        }
      ],
      "name": "withdrawERC20",
      "outputs": [],
      "stateMutability": "nonpayable",
      "type": "function"
    },
    {
      "inputs": [],
      "name": "endSale",
      "outputs": [],
      "stateMutability": "nonpayable",
      "type": "function"
    },
    {
      "inputs": [
        {
          "internalType": "address",
          "name": "account",
          "type": "address"
        },
        {
          "internalType": "uint256",
          "name": "amount",
          "type": "uint256"
        },
        {
          "internalType": "uint8",
          "name": "_block",
          "type": "uint8"
        }
      ],
      "name": "issueNonSaleTokens",
      "outputs": [],
      "stateMutability": "nonpayable",
      "type": "function"
    },
    {
      "inputs": [
        {
          "internalType": "uint8",
          "name": "_block",
          "type": "uint8"
        }
      ],
      "name": "buyTokens",
      "outputs": [],
      "stateMutability": "payable",
      "type": "function"
    },
    {
      "inputs": [],
      "name": "claim",
      "outputs": [
        {
          "internalType": "uint256",
          "name": "",
          "type": "uint256"
        }
      ],
      "stateMutability": "nonpayable",
      "type": "function"
    },
    {
      "inputs": [
        {
          "internalType": "uint256",
          "name": "amount",
          "type": "uint256"
        },
        {
          "internalType": "uint256",
          "name": "percentage",
          "type": "uint256"
        },
        {
          "internalType": "uint256",
          "name": "div",
          "type": "uint256"
        }
      ],
      "name": "perCalc",
      "outputs": [
        {
          "internalType": "uint256",
          "name": "value",
          "type": "uint256"
        }
      ],
      "stateMutability": "pure",
      "type": "function"
    },
    {
      "inputs": [
        {
          "internalType": "address",
          "name": "account",
          "type": "address"
        }
      ],
      "name": "balanceOfBlock",
      "outputs": [
        {
          "internalType": "uint256",
          "name": "_amount",
          "type": "uint256"
        },
        {
          "internalType": "uint256",
          "name": "_block",
          "type": "uint256"
        },
        {
          "internalType": "uint256",
          "name": "_claimed",
          "type": "uint256"
        }
      ],
      "stateMutability": "view",
      "type": "function"
    },
    {
      "inputs": [
        {
          "internalType": "address payable",
          "name": "account",
          "type": "address"
        }
      ],
      "name": "uniswapEthWithdraw",
      "outputs": [],
      "stateMutability": "nonpayable",
      "type": "function"
    },
    {
      "inputs": [],
      "name": "ethBalanceOfUniswap",
      "outputs": [
        {
          "internalType": "uint256",
          "name": "",
          "type": "uint256"
        }
      ],
      "stateMutability": "view",
      "type": "function"
    },
    {
      "inputs": [],
      "name": "ethBalanceOfContract",
      "outputs": [
        {
          "internalType": "uint256",
          "name": "",
          "type": "uint256"
        }
      ],
      "stateMutability": "view",
      "type": "function"
    },
    {
      "inputs": [
        {
          "internalType": "address payable",
          "name": "_referee",
          "type": "address"
        }
      ],
      "name": "addRefferal",
      "outputs": [],
      "stateMutability": "nonpayable",
      "type": "function"
    },
    {
      "inputs": [
        {
          "internalType": "uint256",
          "name": "_time",
          "type": "uint256"
        }
      ],
      "name": "setEndTime",
      "outputs": [],
      "stateMutability": "nonpayable",
      "type": "function"
    }
  ],
  "bytecode": "0x60806040523480156200001157600080fd5b506040516200342938038062003429833981810160405260e08110156200003757600080fd5b8101908080519060200190929190805190602001909291908051906020019092919080519060200190929190805190602001909291908051906020019092919080519060200190929190505050600062000096620001f660201b60201c565b9050806000806101000a81548173ffffffffffffffffffffffffffffffffffffffff021916908373ffffffffffffffffffffffffffffffffffffffff1602179055508073ffffffffffffffffffffffffffffffffffffffff16600073ffffffffffffffffffffffffffffffffffffffff167f8be0079c531659141344cd1fd0a4f28419497f9722a3daafe3b4186f6b6457e060405160405180910390a350866001819055508560038190555084600481905550836006819055508260078190555081600c60016101000a81548173ffffffffffffffffffffffffffffffffffffffff021916908373ffffffffffffffffffffffffffffffffffffffff16021790555080600d60006101000a81548173ffffffffffffffffffffffffffffffffffffffff021916908373ffffffffffffffffffffffffffffffffffffffff160217905550620001e9620001fe60201b60201c565b5050505050505062000976565b600033905090565b60405180610120016040528069d3c21bcecceda100000081526020016000815260200162278d00815260200161014e815260200161271081526020016352f325eb815260200164e8d4a510008152602001600f81526020016000815250600e6000600160ff168152602001908152602001600020600082015181600001556020820151816001015560408201518160020155606082015181600301556080820151816004015560a0820151816005015560c0820151816006015560e0820151816007015561010082015181600801559050506040518061012001604052806a01a784379d99db420000008152602001600081526020016212750081526020016102cb8152602001612710815260200163b19279cb815260200164e8d4a510008152602001601481526020016000815250600e6000600260ff168152602001908152602001600020600082015181600001556020820151816001015560408201518160020155606082015181600301556080820151816004015560a0820151816005015560c0820151816006015560e0820151816007015561010082015181600801559050506040518061012001604052806a027b46536c66c8e300000081526020016000815260200162093a808152602001608f81526020016103e8815260200164016324f395815260200164e8d4a510008152602001601981526020016000815250600e6000600360ff168152602001908152602001600020600082015181600001556020820151816001015560408201518160020155606082015181600301556080820151816004015560a0820151816005015560c0820151816006015560e0820151816007015561010082015181600801559050506040518061012001604052806a034f086f3b33b6840000008152602001600081526020016000815260200160648152602001606481526020016409b386e0ab815260200164e8d4a510008152602001601e81526020016000815250600e6000600460ff168152602001908152602001600020600082015181600001556020820151816001015560408201518160020155606082015181600301556080820151816004015560a0820151816005015560c0820151816006015560e08201518160070155610100820151816008015590505060405180610120016040528069d3c21bcecceda1000000815260200162278d00815260200162ed4e00815260200164014699cd97815260200164e8d4a510008152602001630d9bbde6815260200164e8d4a510008152602001600081526020016000815250600e6000600560ff168152602001908152602001600020600082015181600001556020820151816001015560408201518160020155606082015181600301556080820151816004015560a0820151816005015560c0820151816006015560e0820151816007015561010082015181600801559050506040518061012001604052806a01a784379d99db420000008152602001600081526020016301e13380815260200163a34ce6cb815260200164e8d4a5100081526020016306cddef3815260200164e8d4a510008152602001600081526020016000815250600e6000600660ff168152602001908152602001600020600082015181600001556020820151816001015560408201518160020155606082015181600301556080820151816004015560a0820151816005015560c0820151816006015560e0820151816007015561010082015181600801559050506040518061012001604052806a01a784379d99db42000000815260200162ed4e0081526020016305a39a808152602001600181526020016103e8815260200163027bc86b815260200164e8d4a510008152602001600081526020016000815250600e6000600760ff168152602001908152602001600020600082015181600001556020820151816001015560408201518160020155606082015181600301556080820151816004015560a0820151816005015560c0820151816006015560e0820151816007015561010082015181600801559050506040518061012001604052806969e10de76676d08000008152602001600081526020016301e13380815260200163a34ce6cb815260200164e8d4a5100081526020016306cddef3815260200164e8d4a510008152602001600081526020016000815250600e6000600860ff168152602001908152602001600020600082015181600001556020820151816001015560408201518160020155606082015181600301556080820151816004015560a0820151816005015560c0820151816006015560e0820151816007015561010082015181600801559050506040518061012001604052806969e10de76676d0800000815260200162ed4e00815260200162ed4e008152602001606c81526020016127108152602001602d8152602001620186a08152602001600081526020016000815250600e6000600960ff168152602001908152602001600020600082015181600001556020820151816001015560408201518160020155606082015181600301556080820151816004015560a0820151816005015560c0820151816006015560e082015181600701556101008201518160080155905050565b612aa380620009866000396000f3fe6080604052600436106100fe5760003560e01c80638307cdd811610095578063c37d0eda11610064578063c37d0eda14610455578063c5816f19146104b8578063ccb98ffc14610509578063d1d22f9814610544578063f2fde38b1461056f576100fe565b80638307cdd8146103505780638da5cb5b1461037b5780639d6c7c35146103bc578063bba5b24e14610424576100fe565b80634e71d92d116100d15780634e71d92d146102095780634ea6fc56146102345780635d29dab4146102be578063715018a614610339576100fe565b80631cc52834146101035780633197cbb614610176578063380d831b146101a15780634453dbf7146101b8575b600080fd5b34801561010f57600080fd5b506101526004803603602081101561012657600080fd5b81019080803573ffffffffffffffffffffffffffffffffffffffff1690602001909291905050506105c0565b60405180848152602001838152602001828152602001935050505060405180910390f35b34801561018257600080fd5b5061018b6106ae565b6040518082815260200191505060405180910390f35b3480156101ad57600080fd5b506101b66106b4565b005b3480156101c457600080fd5b50610207600480360360208110156101db57600080fd5b81019080803573ffffffffffffffffffffffffffffffffffffffff169060200190929190505050610a74565b005b34801561021557600080fd5b5061021e610bf6565b6040518082815260200191505060405180910390f35b34801561024057600080fd5b506102706004803603602081101561025757600080fd5b81019080803560ff16906020019092919050505061150a565b604051808a8152602001898152602001888152602001878152602001868152602001858152602001848152602001838152602001828152602001995050505050505050505060405180910390f35b3480156102ca57600080fd5b50610337600480360360608110156102e157600080fd5b8101908080359060200190929190803573ffffffffffffffffffffffffffffffffffffffff169060200190929190803573ffffffffffffffffffffffffffffffffffffffff169060200190929190505050611558565b005b34801561034557600080fd5b5061034e6116d8565b005b34801561035c57600080fd5b5061036561185e565b6040518082815260200191505060405180910390f35b34801561038757600080fd5b50610390611868565b604051808273ffffffffffffffffffffffffffffffffffffffff16815260200191505060405180910390f35b3480156103c857600080fd5b50610422600480360360608110156103df57600080fd5b81019080803573ffffffffffffffffffffffffffffffffffffffff16906020019092919080359060200190929190803560ff169060200190929190505050611891565b005b6104536004803603602081101561043a57600080fd5b81019080803560ff169060200190929190505050611c75565b005b34801561046157600080fd5b506104a26004803603606081101561047857600080fd5b8101908080359060200190929190803590602001909291908035906020019092919050505061223d565b6040518082815260200191505060405180910390f35b3480156104c457600080fd5b50610507600480360360208110156104db57600080fd5b81019080803573ffffffffffffffffffffffffffffffffffffffff169060200190929190505050612254565b005b34801561051557600080fd5b506105426004803603602081101561052c57600080fd5b81019080803590602001909291905050506123e8565b005b34801561055057600080fd5b506105596124ba565b6040518082815260200191505060405180910390f35b34801561057b57600080fd5b506105be6004803603602081101561059257600080fd5b81019080803573ffffffffffffffffffffffffffffffffffffffff1690602001909291905050506124c2565b005b6000806000601160008573ffffffffffffffffffffffffffffffffffffffff1673ffffffffffffffffffffffffffffffffffffffff16815260200190815260200160002060000154601160008673ffffffffffffffffffffffffffffffffffffffff1673ffffffffffffffffffffffffffffffffffffffff16815260200190815260200160002060030160009054906101000a900460ff16601160008773ffffffffffffffffffffffffffffffffffffffff1673ffffffffffffffffffffffffffffffffffffffff168152602001908152602001600020600201548160ff1691509250925092509193909250565b60025481565b6106bc6126cd565b73ffffffffffffffffffffffffffffffffffffffff1660008054906101000a900473ffffffffffffffffffffffffffffffffffffffff1673ffffffffffffffffffffffffffffffffffffffff161461077c576040517f08c379a00000000000000000000000000000000000000000000000000000000081526004018080602001828103825260208152602001807f4f776e61626c653a2063616c6c6572206973206e6f7420746865206f776e657281525060200191505060405180910390fd5b6001544210156107f4576040517f08c379a00000000000000000000000000000000000000000000000000000000081526004018080602001828103825260148152602001807f73616c65206e6f7420796574207374617274656400000000000000000000000081525060200191505060405180910390fd5b600c60009054906101000a900460ff1615610877576040517f08c379a000000000000000000000000000000000000000000000000000000000815260040180806020018281038252600a8152602001807f73616c6520656e6465640000000000000000000000000000000000000000000081525060200191505060405180910390fd5b6001600c60006101000a81548160ff02191690831515021790555042600281905550600080600190505b60048160ff161161098657600e60008260ff1660ff16815260200190815260200160002060080154600e60008360ff1660ff16815260200190815260200160002060000154111561097957610939600e60008360ff1660ff16815260200190815260200160002060080154600e60008460ff1660ff1681526020019081526020016000206000015403836126d590919063ffffffff16565b9150600e60008260ff1660ff16815260200190815260200160002060080154600e60008360ff1660ff168152602001908152602001600020600001819055505b80806001019150506108a1565b50600d60009054906101000a900473ffffffffffffffffffffffffffffffffffffffff1673ffffffffffffffffffffffffffffffffffffffff166342966c68826040518263ffffffff1660e01b815260040180828152602001915050602060405180830381600087803b1580156109fc57600080fd5b505af1158015610a10573d6000803e3d6000fd5b505050506040513d6020811015610a2657600080fd5b8101908080519060200190929190505050507f94173af9e1cd5351395663e6a7838552ea54f5233d0c38bc46de5f4915b302bf6002546040518082815260200191505060405180910390a150565b600073ffffffffffffffffffffffffffffffffffffffff16601060008373ffffffffffffffffffffffffffffffffffffffff1673ffffffffffffffffffffffffffffffffffffffff16815260200190815260200160002060009054906101000a900473ffffffffffffffffffffffffffffffffffffffff1673ffffffffffffffffffffffffffffffffffffffff1614610b75576040517f08c379a00000000000000000000000000000000000000000000000000000000081526004018080602001828103825260168152602001807f7265666572656520616c7265616479206578697374730000000000000000000081525060200191505060405180910390fd5b33601060008373ffffffffffffffffffffffffffffffffffffffff1673ffffffffffffffffffffffffffffffffffffffff16815260200190815260200160002060006101000a81548173ffffffffffffffffffffffffffffffffffffffff021916908373ffffffffffffffffffffffffffffffffffffffff16021790555050565b600080601160003373ffffffffffffffffffffffffffffffffffffffff1673ffffffffffffffffffffffffffffffffffffffff16815260200190815260200160002060030160009054906101000a900460ff169050600c60009054906101000a900460ff168015610c86575042600254600e60008460ff1660ff1681526020019081526020016000206001015401105b610cf8576040517f08c379a00000000000000000000000000000000000000000000000000000000081526004018080602001828103825260198152602001807f76657374696e672069736e27742073746172746564207965740000000000000081525060200191505060405180910390fd5b6000601160003373ffffffffffffffffffffffffffffffffffffffff1673ffffffffffffffffffffffffffffffffffffffff16815260200190815260200160002060020154601160003373ffffffffffffffffffffffffffffffffffffffff1673ffffffffffffffffffffffffffffffffffffffff1681526020019081526020016000206000015403905060008111610df9576040517f08c379a00000000000000000000000000000000000000000000000000000000081526004018080602001828103825260118152602001807f6e6f20746f6b656e7320746f207665737400000000000000000000000000000081525060200191505060405180910390fd5b6000806000601160003373ffffffffffffffffffffffffffffffffffffffff1673ffffffffffffffffffffffffffffffffffffffff168152602001908152602001600020600101541415610e9557610e8e610e10610e7e600254600e60008960ff1660ff168152602001908152602001600020600101546126d590919063ffffffff16565b420361275d90919063ffffffff16565b9150610ef1565b610eee610e10601160003373ffffffffffffffffffffffffffffffffffffffff1673ffffffffffffffffffffffffffffffffffffffff16815260200190815260200160002060010154420361275d90919063ffffffff16565b91505b60008211610f4a576040517f08c379a0000000000000000000000000000000000000000000000000000000008152600401808060200182810382526029815260200180612a456029913960400191505060405180910390fd5b6000610f7662015180610f68610e10866127a790919063ffffffff16565b61275d90919063ffffffff16565b9050600081111561105c57611006601160003373ffffffffffffffffffffffffffffffffffffffff1673ffffffffffffffffffffffffffffffffffffffff16815260200190815260200160002060000154600e60008860ff1660ff16815260200190815260200160002060030154600e60008960ff1660ff1681526020019081526020016000206004015461223d565b915061101b81836127a790919063ffffffff16565b915061105961104a610e1061103c62015180856127a790919063ffffffff16565b61275d90919063ffffffff16565b8461282d90919063ffffffff16565b92505b600080841115611115576110eb601160003373ffffffffffffffffffffffffffffffffffffffff1673ffffffffffffffffffffffffffffffffffffffff16815260200190815260200160002060000154600e60008960ff1660ff16815260200190815260200160002060050154600e60008a60ff1660ff1681526020019081526020016000206006015461223d565b905061111261110385836127a790919063ffffffff16565b846126d590919063ffffffff16565b92505b6000831161118b576040517f08c379a00000000000000000000000000000000000000000000000000000000081526004018080602001828103825260168152602001807f746f6b656e7320746f6f206c6f7720746f20766573740000000000000000000081525060200191505060405180910390fd5b42601160003373ffffffffffffffffffffffffffffffffffffffff1673ffffffffffffffffffffffffffffffffffffffff1681526020019081526020016000206001018190555082851061133a5761122e83601160003373ffffffffffffffffffffffffffffffffffffffff1673ffffffffffffffffffffffffffffffffffffffff168152602001908152602001600020600201546126d590919063ffffffff16565b601160003373ffffffffffffffffffffffffffffffffffffffff1673ffffffffffffffffffffffffffffffffffffffff1681526020019081526020016000206002018190555060008386039050818110156113345761129681856126d590919063ffffffff16565b93506112ed81601160003373ffffffffffffffffffffffffffffffffffffffff1673ffffffffffffffffffffffffffffffffffffffff168152602001908152602001600020600201546126d590919063ffffffff16565b601160003373ffffffffffffffffffffffffffffffffffffffff1673ffffffffffffffffffffffffffffffffffffffff168152602001908152602001600020600201819055505b506113d9565b84925061139285601160003373ffffffffffffffffffffffffffffffffffffffff1673ffffffffffffffffffffffffffffffffffffffff168152602001908152602001600020600201546126d590919063ffffffff16565b601160003373ffffffffffffffffffffffffffffffffffffffff1673ffffffffffffffffffffffffffffffffffffffff168152602001908152602001600020600201819055505b600d60009054906101000a900473ffffffffffffffffffffffffffffffffffffffff1673ffffffffffffffffffffffffffffffffffffffff1663a9059cbb33856040518363ffffffff1660e01b8152600401808373ffffffffffffffffffffffffffffffffffffffff16815260200182815260200192505050602060405180830381600087803b15801561146c57600080fd5b505af1158015611480573d6000803e3d6000fd5b505050506040513d602081101561149657600080fd5b8101908080519060200190929190505050503373ffffffffffffffffffffffffffffffffffffffff167f0c4f56fec0b96b3e1261d4988bc40bfb0a4cb4117732a0533a72a19cac93d2318488604051808381526020018260ff1681526020019250505060405180910390a250505050505090565b600e6020528060005260406000206000915090508060000154908060010154908060020154908060030154908060040154908060050154908060060154908060070154908060080154905089565b6115606126cd565b73ffffffffffffffffffffffffffffffffffffffff1660008054906101000a900473ffffffffffffffffffffffffffffffffffffffff1673ffffffffffffffffffffffffffffffffffffffff1614611620576040517f08c379a00000000000000000000000000000000000000000000000000000000081526004018080602001828103825260208152602001807f4f776e61626c653a2063616c6c6572206973206e6f7420746865206f776e657281525060200191505060405180910390fd5b60008290508073ffffffffffffffffffffffffffffffffffffffff1663a9059cbb83866040518363ffffffff1660e01b8152600401808373ffffffffffffffffffffffffffffffffffffffff16815260200182815260200192505050602060405180830381600087803b15801561169657600080fd5b505af11580156116aa573d6000803e3d6000fd5b505050506040513d60208110156116c057600080fd5b81019080805190602001909291905050505050505050565b6116e06126cd565b73ffffffffffffffffffffffffffffffffffffffff1660008054906101000a900473ffffffffffffffffffffffffffffffffffffffff1673ffffffffffffffffffffffffffffffffffffffff16146117a0576040517f08c379a00000000000000000000000000000000000000000000000000000000081526004018080602001828103825260208152602001807f4f776e61626c653a2063616c6c6572206973206e6f7420746865206f776e657281525060200191505060405180910390fd5b600073ffffffffffffffffffffffffffffffffffffffff1660008054906101000a900473ffffffffffffffffffffffffffffffffffffffff1673ffffffffffffffffffffffffffffffffffffffff167f8be0079c531659141344cd1fd0a4f28419497f9722a3daafe3b4186f6b6457e060405160405180910390a360008060006101000a81548173ffffffffffffffffffffffffffffffffffffffff021916908373ffffffffffffffffffffffffffffffffffffffff160217905550565b6000600854905090565b60008060009054906101000a900473ffffffffffffffffffffffffffffffffffffffff16905090565b6118996126cd565b73ffffffffffffffffffffffffffffffffffffffff1660008054906101000a900473ffffffffffffffffffffffffffffffffffffffff1673ffffffffffffffffffffffffffffffffffffffff1614611959576040517f08c379a00000000000000000000000000000000000000000000000000000000081526004018080602001828103825260208152602001807f4f776e61626c653a2063616c6c6572206973206e6f7420746865206f776e657281525060200191505060405180910390fd5b6000601160008573ffffffffffffffffffffffffffffffffffffffff1673ffffffffffffffffffffffffffffffffffffffff1681526020019081526020016000206000015414611a11576040517f08c379a00000000000000000000000000000000000000000000000000000000081526004018080602001828103825260148152602001807f627579657220616c72656164792065786973747300000000000000000000000081525060200191505060405180910390fd5b8060ff166004108015611a275750600a8160ff16105b611a99576040517f08c379a000000000000000000000000000000000000000000000000000000000815260040180806020018281038252600d8152602001807f696e76616c696420626c6f636b0000000000000000000000000000000000000081525060200191505060405180910390fd5b604051806080016040528083815260200160008152602001600081526020018260ff16815250601160008573ffffffffffffffffffffffffffffffffffffffff1673ffffffffffffffffffffffffffffffffffffffff16815260200190815260200160002060008201518160000155602082015181600101556040820151816002015560608201518160030160006101000a81548160ff021916908360ff160217905550905050611b6f82600e60008460ff1660ff168152602001908152602001600020600801546126d590919063ffffffff16565b50600e60008260ff1660ff16815260200190815260200160002060080154600e60008360ff1660ff168152602001908152602001600020600001541015611c1e576040517f08c379a000000000000000000000000000000000000000000000000000000000815260040180806020018281038252601b8152602001807f616d6f756e74206578636565647320626c6f636b20737570706c79000000000081525060200191505060405180910390fd5b8060ff168373ffffffffffffffffffffffffffffffffffffffff167f05889627d9496c2dfa862932a52bc77790dc2c287fc4f115342a96e4c2203569846040518082815260200191505060405180910390a3505050565b600154421015611ced576040517f08c379a00000000000000000000000000000000000000000000000000000000081526004018080602001828103825260148152602001807f73616c65206e6f7420796574207374617274656400000000000000000000000081525060200191505060405180910390fd5b600c60009054906101000a900460ff1615611d70576040517f08c379a000000000000000000000000000000000000000000000000000000000815260040180806020018281038252600a8152602001807f73616c6520656e6465640000000000000000000000000000000000000000000081525060200191505060405180910390fd5b346006541115611de8576040517f08c379a00000000000000000000000000000000000000000000000000000000081526004018080602001828103825260108152602001807f6574682073656e7420746f6f206c6f770000000000000000000000000000000081525060200191505060405180910390fd5b600754341115611e60576040517f08c379a00000000000000000000000000000000000000000000000000000000081526004018080602001828103825260118152602001807f6574682073656e7420746f6f206869676800000000000000000000000000000081525060200191505060405180910390fd5b6000601160003373ffffffffffffffffffffffffffffffffffffffff1673ffffffffffffffffffffffffffffffffffffffff1681526020019081526020016000206000015414611f18576040517f08c379a00000000000000000000000000000000000000000000000000000000081526004018080602001828103825260148152602001807f627579657220616c72656164792065786973747300000000000000000000000081525060200191505060405180910390fd5b8060ff166000108015611f2e575060058160ff16105b611fa0576040517f08c379a000000000000000000000000000000000000000000000000000000000815260040180806020018281038252600d8152602001807f696e76616c696420626c6f636b0000000000000000000000000000000000000081525060200191505060405180910390fd5b6000611fd3600e60008460ff1660ff1681526020019081526020016000206007015460055461275d90919063ffffffff16565b90506000612004670de0b6b3a7640000611ff634856127a790919063ffffffff16565b61275d90919063ffffffff16565b9050670de0b6b3a764000081029050604051806080016040528082815260200160008152602001600081526020018460ff16815250601160003373ffffffffffffffffffffffffffffffffffffffff1673ffffffffffffffffffffffffffffffffffffffff16815260200190815260200160002060008201518160000155602082015181600101556040820151816002015560608201518160030160006101000a81548160ff021916908360ff1602179055509050506120e981600e60008660ff1660ff168152602001908152602001600020600801546126d590919063ffffffff16565b600e60008560ff1660ff16815260200190815260200160002060080181905550600e60008460ff1660ff16815260200190815260200160002060080154600e60008560ff1660ff1681526020019081526020016000206000015410156121b7576040517f08c379a00000000000000000000000000000000000000000000000000000000081526004018080602001828103825260158152602001807f616d6f756e74206578636565647320737570706c79000000000000000000000081525060200191505060405180910390fd5b6121cc81600b546126d590919063ffffffff16565b600b81905550600454600b54106121e6576121e56106b4565b5b8260ff163373ffffffffffffffffffffffffffffffffffffffff167f64a6cdb9816f7d15a3e26b2fcd226b68a8b47e548cd046d211ad5b5d85ae9f2b836040518082815260200191505060405180910390a3505050565b6000818385028161224a57fe5b0490509392505050565b61225c6126cd565b73ffffffffffffffffffffffffffffffffffffffff1660008054906101000a900473ffffffffffffffffffffffffffffffffffffffff1673ffffffffffffffffffffffffffffffffffffffff161461231c576040517f08c379a00000000000000000000000000000000000000000000000000000000081526004018080602001828103825260208152602001807f4f776e61626c653a2063616c6c6572206973206e6f7420746865206f776e657281525060200191505060405180910390fd5b600060085411612394576040517f08c379a00000000000000000000000000000000000000000000000000000000081526004018080602001828103825260148152602001807f6e6f2066756e647320746f207472616e7366657200000000000000000000000081525060200191505060405180910390fd5b8073ffffffffffffffffffffffffffffffffffffffff166108fc6008549081150290604051600060405180830381858888f193505050501580156123dc573d6000803e3d6000fd5b50600060088190555050565b6123f06126cd565b73ffffffffffffffffffffffffffffffffffffffff1660008054906101000a900473ffffffffffffffffffffffffffffffffffffffff1673ffffffffffffffffffffffffffffffffffffffff16146124b0576040517f08c379a00000000000000000000000000000000000000000000000000000000081526004018080602001828103825260208152602001807f4f776e61626c653a2063616c6c6572206973206e6f7420746865206f776e657281525060200191505060405180910390fd5b8060028190555050565b600047905090565b6124ca6126cd565b73ffffffffffffffffffffffffffffffffffffffff1660008054906101000a900473ffffffffffffffffffffffffffffffffffffffff1673ffffffffffffffffffffffffffffffffffffffff161461258a576040517f08c379a00000000000000000000000000000000000000000000000000000000081526004018080602001828103825260208152602001807f4f776e61626c653a2063616c6c6572206973206e6f7420746865206f776e657281525060200191505060405180910390fd5b600073ffffffffffffffffffffffffffffffffffffffff168173ffffffffffffffffffffffffffffffffffffffff161415612610576040517f08c379a00000000000000000000000000000000000000000000000000000000081526004018080602001828103825260268152602001806129fe6026913960400191505060405180910390fd5b8073ffffffffffffffffffffffffffffffffffffffff1660008054906101000a900473ffffffffffffffffffffffffffffffffffffffff1673ffffffffffffffffffffffffffffffffffffffff167f8be0079c531659141344cd1fd0a4f28419497f9722a3daafe3b4186f6b6457e060405160405180910390a3806000806101000a81548173ffffffffffffffffffffffffffffffffffffffff021916908373ffffffffffffffffffffffffffffffffffffffff16021790555050565b600033905090565b600080828401905083811015612753576040517f08c379a000000000000000000000000000000000000000000000000000000000815260040180806020018281038252601b8152602001807f536166654d6174683a206164646974696f6e206f766572666c6f77000000000081525060200191505060405180910390fd5b8091505092915050565b600061279f83836040518060400160405280601a81526020017f536166654d6174683a206469766973696f6e206279207a65726f000000000000815250612877565b905092915050565b6000808314156127ba5760009050612827565b60008284029050828482816127cb57fe5b0414612822576040517f08c379a0000000000000000000000000000000000000000000000000000000008152600401808060200182810382526021815260200180612a246021913960400191505060405180910390fd5b809150505b92915050565b600061286f83836040518060400160405280601e81526020017f536166654d6174683a207375627472616374696f6e206f766572666c6f77000081525061293d565b905092915050565b60008083118290612923576040517f08c379a00000000000000000000000000000000000000000000000000000000081526004018080602001828103825283818151815260200191508051906020019080838360005b838110156128e85780820151818401526020810190506128cd565b50505050905090810190601f1680156129155780820380516001836020036101000a031916815260200191505b509250505060405180910390fd5b50600083858161292f57fe5b049050809150509392505050565b60008383111582906129ea576040517f08c379a00000000000000000000000000000000000000000000000000000000081526004018080602001828103825283818151815260200191508051906020019080838360005b838110156129af578082015181840152602081019050612994565b50505050905090810190601f1680156129dc5780820380516001836020036101000a031916815260200191505b509250505060405180910390fd5b506000838503905080915050939250505056fe4f776e61626c653a206e6577206f776e657220697320746865207a65726f2061646472657373536166654d6174683a206d756c7469706c69636174696f6e206f766572666c6f776e6f7420656e6f7567682074696d6520746f20766573742c20706c6561736520747279206c61746572a264697066735822122021689e507ce802cb499e020324de0ef65b474f18e327147e7b9bda6a2e01967364736f6c63430007010033",
  "source": "// SPDX-License-Identifier: MIT\n\npragma solidity 0.7.1;\n\nimport \"openzeppelin-solidity/contracts/math/SafeMath.sol\";\nimport \"openzeppelin-solidity/contracts/access/Ownable.sol\";\nimport \"openzeppelin-solidity/contracts/token/ERC20/IERC20.sol\";\nimport \"./IToken.sol\";\n\n\n/// @title  TokenSaleContract - A sale contract of token plus uniswap\n///         implementation that is backed by ether.\ncontract TokenSale is Ownable {\n\nusing SafeMath for uint256;\n\n\nuint256 startTime;\nuint256 public endTime;\nuint256 softCap;\nuint256 hardCap;\nuint256 ethPrice;\nuint256 minBuy;\nuint256 maxBuy;\nuint256 uniswapEth;\nuint256 referalEthReward;\nuint256 ethWithdraw;\nuint256 totalPurchased;\nbool saleEnd;\n\naddress payable companyWallet;\nIToken  erc20Token;\n\nconstructor(uint _startTime, uint256 _softCap, uint256 _hardCap, uint256 _minBuy, uint256 _maxBuy, address payable _companyWallet, address _tokenContract) {\n    startTime = _startTime;\n    softCap = _softCap;\n    hardCap = _hardCap;\n    minBuy = _minBuy;\n    maxBuy = _maxBuy;\n    companyWallet = _companyWallet;\n    erc20Token = IToken(_tokenContract);\n    initBlocks();\n}\n\n// Allow other ERC20 tokens to be withdrawn from contract in case of accidental deposit, except\n// for the token being sold.\nfunction withdrawERC20(uint256 _amount, address _token, address _to) onlyOwner external {\n    IERC20 erc20 =  IERC20(_token);\n    erc20.transfer(_to, _amount);\n}\n\n// start sale\nmodifier isSaleStarted {\n    require(block.timestamp>= startTime);\n    _;\n}\n// check if sale ended or not\nmodifier isSaleble {\n    require(block.timestamp>= startTime,\"sale not yet started\");\n    require(!saleEnd,\"sale ended\");\n    _;\n}\nstruct TokenBlock {\n    uint supply;\n    uint256 lockPeriod; // days\n    uint256 vestingPeriod;  // days\n    uint releasePerDayPerc;\n    uint releasePerDayDiv;\n    uint releasePerHourPerc;\n    uint releasePerHourDiv;\n    uint price;\n    uint256 issued;\n}\nmapping(uint8 => TokenBlock) public saleTokens;\nmapping(uint8 => TokenBlock) nonsaleTokens;\nmapping(address => address payable) referals;\nstruct tokens {\n    uint256 amount;\n    uint256 lastVestingTime;\n    uint256 amountVested;\n    uint8 blockId;\n}\nmapping(address => tokens) balance;\n// init blocks 1-4 saleable & 5 nonsaleable blocks\nfunction initBlocks() internal {\n    // setting supply in ehters just to ensure 18 decimals, price in pennies\n    saleTokens[1] = TokenBlock(1000000 ether,0 days, 30 days,334,10000,1391666667,1000000000000,15 ,0);\n    saleTokens[2] = TokenBlock(2000000 ether,0 days, 14 days,715,10000,2979166667,1000000000000,20 ,0);\n    saleTokens[3] = TokenBlock(3000000 ether,0 days, 7 days,143,1000,5958333333,1000000000000,25 ,0);\n    saleTokens[4] = TokenBlock(4000000 ether,0 days, 0 days,100,100,41666666667,1000000000000,30 ,0);\n    saleTokens[5] = TokenBlock(1000000 ether,30 days, 180 days,5479452055,1000000000000,228310502,1000000000000,0 ,0); // advisors block\n    saleTokens[6] = TokenBlock(2000000 ether,0 days, 365 days,2739726027,1000000000000,114155251,1000000000000,0 ,0); // marketing/staking block\n    saleTokens[7] = TokenBlock(2000000 ether,180 days, 3*365 days,1,1000,41666667,1000000000000,0 ,0); // team block\n    saleTokens[8] = TokenBlock(500000 ether,0 days, 365 days,2739726027,1000000000000,114155251,1000000000000,0 ,0); // bounty block\n    saleTokens[9] = TokenBlock(500000 ether,180 days, 180 days,108,10000,45,100000,0 ,0); // airdrops block\n}\n\n// end Sale\nfunction endSale() onlyOwner public isSaleble  {\n\n saleEnd = true;\n endTime = block.timestamp;\n uint256 _toBeBurned;\n // burn tokens which are not issued yet saleable tokens only e.g burnable = supply - issued\n for(uint8 i = 1; i <= 4; i++){\n     if(saleTokens[i].supply > saleTokens[i].issued){\n         _toBeBurned = _toBeBurned.add(saleTokens[i].supply - saleTokens[i].issued );\n         // burning extra tokens\n         saleTokens[i].supply = saleTokens[i].issued;\n         \n     }\n }\n erc20Token.burn(_toBeBurned);\n \n        \n    emit EndSale(endTime);\n    \n}\n/// Ability to add users after sale ended in nonsaleable blocks\nfunction issueNonSaleTokens(address account,uint256 amount, uint8 _block) onlyOwner external {\n    require(balance[account].amount == 0,\"buyer already exists\");\n    require(4 < _block &&_block < 10,\"invalid block\"); \n\n    balance[account] = tokens(amount,0,0,_block);\n    saleTokens[_block].issued.add(amount);\n    require(saleTokens[_block].supply >= saleTokens[_block].issued,\"amount exceeds block supply\");\n    emit Issue(account,amount,_block);\n}\n// to buy tokens\nfunction buyTokens(uint8 _block) isSaleble payable external {\n    \n    require(minBuy <= msg.value,\"eth sent too low\");\n    require(msg.value <= maxBuy,\"eth sent too high\");\n\n    require(balance[msg.sender].amount == 0,\"buyer already exists\");\n    require(0 < _block &&_block < 5,\"invalid block\");\n    \n    \n    uint256 tokensPerEth = ethPrice.div(saleTokens[_block].price);\n    uint256 amount = tokensPerEth.mul(msg.value).div(1 ether);\n\n   // uint256 amount = msg.value / saleTokens[_block].price;  // price in eth but value in wei :/ (auto conversion)\n    amount = amount * 10 ** 18;\n    \n    balance[msg.sender] = tokens(amount,0,0,_block);\n    saleTokens[_block].issued = saleTokens[_block].issued.add(amount);\n    require(saleTokens[_block].supply >= saleTokens[_block].issued,\"amount exceeds supply\");\n\n    totalPurchased = totalPurchased.add(amount);\n    // in case of hardcap reached end the sale.\n    if(totalPurchased >= hardCap){\n        endSale();\n    }\n\n    emit Buy(msg.sender,_block,amount);\n} \n\n// to claim & vest tokens\nfunction claim() external returns(uint256) {\n// sale & lock period ended, vesting calculation\nuint8 _block = balance[msg.sender].blockId;\nrequire(saleEnd && ( saleTokens[_block].lockPeriod + endTime ) < block.timestamp, \"vesting isn't started yet\");\nuint256 unVestedTokens = balance[msg.sender].amount - balance[msg.sender].amountVested;\nrequire( unVestedTokens > 0, \"no tokens to vest\");\n\n\n// save last vested time and then caclulate current with it to find how much to be vested now and then update last vested time\n// calculate no. hours. obtain 1 hour amount and multiply with total hours\n\nuint256 hour;\nuint256 value;\nif(balance[msg.sender].lastVestingTime == 0){\n     hour = (block.timestamp- (saleTokens[_block].lockPeriod.add(endTime))).div(1 hours);\n}else\n hour = (block.timestamp- (balance[msg.sender].lastVestingTime)).div(1 hours);\n\n require(hour > 0,\"not enough time to vest, please try later\");\n// days to vest\nuint256 day = (hour.mul(1 hours)).div(1 days);\n// remaining hours to vest\nif(day > 0){\n     value = perCalc(balance[msg.sender].amount, saleTokens[_block].releasePerDayPerc, saleTokens[_block].releasePerDayDiv);\n     value = value.mul(day);\n     hour = hour.sub(day.mul(1 days).div(1 hours));\n     \n}\nuint256 valuePerHour;\nif(hour > 0){\n valuePerHour = perCalc(balance[msg.sender].amount, saleTokens[_block].releasePerHourPerc, saleTokens[_block].releasePerHourDiv);\n  \n value = value.add(valuePerHour.mul(hour));\n}\n require(value > 0,\"tokens too low to vest\");\n // last vesting time update\n balance[msg.sender].lastVestingTime = block.timestamp;\n\n// vested tokens deduct from block's tokens\nif(unVestedTokens >= value){\n    balance[msg.sender].amountVested = balance[msg.sender].amountVested.add(value);\n\n    // if dust amount left only\n    uint256 dust = unVestedTokens - value;\n    if(dust < valuePerHour){\n        value = value.add(dust);\n        balance[msg.sender].amountVested = balance[msg.sender].amountVested.add(dust);\n    }\n}else{\n    value = unVestedTokens;\n    balance[msg.sender].amountVested = balance[msg.sender].amountVested.add(unVestedTokens);\n}\n\n// add tokens to erc20 supply as vested tokens to be consumed and used as user wants.\nerc20Token.transfer(msg.sender, value);\n// emit token vested\nemit Vesting(msg.sender,value,_block);\n}\n\n\nfunction perCalc(uint amount, uint percentage, uint div) pure public returns(uint value){\n    value = ( amount * percentage ) / div;\n   // require(value > 0, \"tokens too low to vest\");\n    return value;\n}\nfunction balanceOfBlock(address account) view external returns(uint _amount,uint _block, uint256 _claimed){\n    return (balance[account].amount,balance[account].blockId, balance[account].amountVested);\n}\n\nfunction uniswapEthWithdraw(address payable account) onlyOwner external {\n    require(uniswapEth > 0,\"no funds to transfer\");\n    account.transfer(uniswapEth);\n    uniswapEth = 0;\n}\n\nfunction ethBalanceOfUniswap( ) view external returns(uint256){\n    return uniswapEth;\n}\nfunction ethBalanceOfContract( ) view external returns(uint256){\n    return address(this).balance;\n}\nfunction sendEthAsPerQouta() internal {\n\n    // transfer raised eth to respective addresses as per quota\n    // 67.5% to company wallet, 30% for uniswap, 2.5% for referals\n    \n        uint256 _ethWithdraw = perCalc(msg.value,675,1000);\n                uniswapEth = perCalc(msg.value,30,100);\n        uint256 _referalEthReward = perCalc(msg.value,25,1000);\n\n    // transferring eth\n    companyWallet.transfer(_ethWithdraw);\n    // to referrer and if not then transfer to company wallet\n    if(referals[msg.sender]== msg.sender){\n        // send amount to referal\n        referals[msg.sender].transfer(_referalEthReward);\n\n        emit ReferalReward(referals[msg.sender], _referalEthReward);\n    }else{\n        companyWallet.transfer(_referalEthReward);\n    }\n\n}\nfunction addRefferal(address payable _referee) external {\n    require(referals[_referee]== address(0),'referee already exists');\n    referals[_referee]= msg.sender;\n}\n\n// creating this function for test purposes to create different vesting scenarios \nfunction setEndTime(uint256 _time) external onlyOwner {\n    endTime = _time;\n}\n \nevent Vesting(address indexed account, uint256 amount, uint8 blockId);\nevent Buy(address indexed account, uint8 indexed block, uint256 amount);\nevent Issue(address indexed account,uint256 amount, uint8 indexed block);\nevent EndSale(uint256 endTime);\nevent ReferalReward(address indexed to, uint256 amount);\n}\n",
  "sourcePath": "/home/malik/AVOLA/eth-sale-contract/contracts/SaleContract.sol",
  "compiler": {
    "name": "solc",
    "version": "0.7.1+commit.f4a555be.Emscripten.clang"
  },
  "schemaVersion": "3.0.23",
  "updatedAt": "2021-01-16T15:40:50.510Z",
  "devdoc": {
    "kind": "dev",
    "methods": {
      "owner()": {
        "details": "Returns the address of the current owner."
      },
      "renounceOwnership()": {
        "details": "Leaves the contract without owner. It will not be possible to call `onlyOwner` functions anymore. Can only be called by the current owner. NOTE: Renouncing ownership will leave the contract without an owner, thereby removing any functionality that is only available to the owner."
      },
      "transferOwnership(address)": {
        "details": "Transfers ownership of the contract to a new account (`newOwner`). Can only be called by the current owner."
      }
    },
    "title": "TokenSaleContract - A sale contract of token plus uniswap         implementation that is backed by ether.",
    "version": 1
  },
  "userdoc": {
    "kind": "user",
    "methods": {
      "issueNonSaleTokens(address,uint256,uint8)": {
        "notice": "Ability to add users after sale ended in nonsaleable blocks"
      }
    },
    "version": 1
  }
}