{
  "contractName": "UniswapExample",
  "abi": [
    {
      "inputs": [],
      "stateMutability": "nonpayable",
      "type": "constructor"
    },
    {
      "inputs": [],
      "name": "uniswapRouter",
      "outputs": [
        {
          "internalType": "contract IUniswapV2Router02",
          "name": "",
          "type": "address"
        }
      ],
      "stateMutability": "view",
      "type": "function"
    },
    {
      "inputs": [
        {
          "internalType": "uint256",
          "name": "tokenAmount",
          "type": "uint256"
        },
        {
          "internalType": "address",
          "name": "tokenAdd",
          "type": "address"
        },
        {
          "internalType": "uint256",
          "name": "ethAmount",
          "type": "uint256"
        }
      ],
      "name": "convertEthToToken",
      "outputs": [],
      "stateMutability": "nonpayable",
      "type": "function"
    },
    {
      "inputs": [
        {
          "internalType": "uint256",
          "name": "ethAmount",
          "type": "uint256"
        },
        {
          "internalType": "uint256",
          "name": "tokAmount",
          "type": "uint256"
        },
        {
          "internalType": "address",
          "name": "tokenAdd",
          "type": "address"
        }
      ],
      "name": "convertTokenToEth",
      "outputs": [],
      "stateMutability": "nonpayable",
      "type": "function"
    },
    {
      "inputs": [
        {
          "internalType": "uint256",
          "name": "tokAmount",
          "type": "uint256"
        },
        {
          "internalType": "address",
          "name": "tokenAdd",
          "type": "address"
        }
      ],
      "name": "getEstimatedETHforToken",
      "outputs": [
        {
          "internalType": "uint256[]",
          "name": "",
          "type": "uint256[]"
        }
      ],
      "stateMutability": "view",
      "type": "function"
    },
    {
      "inputs": [
        {
          "internalType": "uint256",
          "name": "tokAmount",
          "type": "uint256"
        },
        {
          "internalType": "address",
          "name": "tokenAdd",
          "type": "address"
        }
      ],
      "name": "getEstimatedTokenforEth",
      "outputs": [
        {
          "internalType": "uint256[]",
          "name": "",
          "type": "uint256[]"
        }
      ],
      "stateMutability": "view",
      "type": "function"
    },
    {
      "inputs": [
        {
          "internalType": "address",
          "name": "token",
          "type": "address"
        }
      ],
      "name": "getBalance",
      "outputs": [
        {
          "internalType": "uint256",
          "name": "",
          "type": "uint256"
        }
      ],
      "stateMutability": "view",
      "type": "function"
    },
    {
      "inputs": [],
      "name": "getEthBalance",
      "outputs": [
        {
          "internalType": "uint256",
          "name": "",
          "type": "uint256"
        }
      ],
      "stateMutability": "view",
      "type": "function"
    }
  ],
  "bytecode": "0x608060405234801561001057600080fd5b50737a250d5630b4cf539739df2c5dacb4c659f2488d6000806101000a81548173ffffffffffffffffffffffffffffffffffffffff021916908373ffffffffffffffffffffffffffffffffffffffff160217905550610fe1806100746000396000f3fe608060405234801561001057600080fd5b506004361061007d5760003560e01c8063735de9f71161005b578063735de9f71461019b5780637f5299e3146101e5578063a4ba59c714610288578063f8b2cb4f146102e05761007d565b806339f1242c146100825780633aaef7c61461012557806370ed0ada1461017d575b600080fd5b6100ce6004803603604081101561009857600080fd5b8101908080359060200190929190803573ffffffffffffffffffffffffffffffffffffffff169060200190929190505050610338565b6040518080602001828103825283818151815260200191508051906020019060200280838360005b838110156101115780820151818401526020810190506100f6565b505050509050019250505060405180910390f35b61017b6004803603606081101561013b57600080fd5b810190808035906020019092919080359060200190929190803573ffffffffffffffffffffffffffffffffffffffff1690602001909291905050506104da565b005b610185610822565b6040518082815260200191505060405180910390f35b6101a361082a565b604051808273ffffffffffffffffffffffffffffffffffffffff1673ffffffffffffffffffffffffffffffffffffffff16815260200191505060405180910390f35b610231600480360360408110156101fb57600080fd5b8101908080359060200190929190803573ffffffffffffffffffffffffffffffffffffffff16906020019092919050505061084f565b6040518080602001828103825283818151815260200191508051906020019060200280838360005b83811015610274578082015181840152602081019050610259565b505050509050019250505060405180910390f35b6102de6004803603606081101561029e57600080fd5b8101908080359060200190929190803573ffffffffffffffffffffffffffffffffffffffff169060200190929190803590602001909291905050506109f1565b005b610322600480360360208110156102f657600080fd5b81019080803573ffffffffffffffffffffffffffffffffffffffff169060200190929190505050610bd7565b6040518082815260200191505060405180910390f35b60606000809054906101000a900473ffffffffffffffffffffffffffffffffffffffff1673ffffffffffffffffffffffffffffffffffffffff1663d06ca61f8461038185610c9d565b6040518363ffffffff1660e01b81526004018083815260200180602001828103825283818151815260200191508051906020019060200280838360005b838110156103d95780820151818401526020810190506103be565b50505050905001935050505060006040518083038186803b1580156103fd57600080fd5b505afa158015610411573d6000803e3d6000fd5b505050506040513d6000823e3d601f19601f82011682018060405250602081101561043b57600080fd5b810190808051604051939291908464010000000082111561045b57600080fd5b8382019150602082018581111561047157600080fd5b825186602082028301116401000000008211171561048e57600080fd5b8083526020830192505050908051906020019060200280838360005b838110156104c55780820151818401526020810190506104aa565b50505050905001604052505050905092915050565b6000601e4201905060008290508073ffffffffffffffffffffffffffffffffffffffff1663095ea7b36000809054906101000a900473ffffffffffffffffffffffffffffffffffffffff16866040518363ffffffff1660e01b8152600401808373ffffffffffffffffffffffffffffffffffffffff1673ffffffffffffffffffffffffffffffffffffffff16815260200182815260200192505050602060405180830381600087803b15801561058f57600080fd5b505af11580156105a3573d6000803e3d6000fd5b505050506040513d60208110156105b957600080fd5b810190808051906020019092919050505061063c576040517f08c379a000000000000000000000000000000000000000000000000000000000815260040180806020018281038252600e8152602001807f417070726f7665206661696c656400000000000000000000000000000000000081525060200191505060405180910390fd5b6000809054906101000a900473ffffffffffffffffffffffffffffffffffffffff1673ffffffffffffffffffffffffffffffffffffffff166318cbafe5858761068487610e24565b30876040518663ffffffff1660e01b815260040180868152602001858152602001806020018473ffffffffffffffffffffffffffffffffffffffff1673ffffffffffffffffffffffffffffffffffffffff168152602001838152602001828103825285818151815260200191508051906020019060200280838360005b8381101561071c578082015181840152602081019050610701565b505050509050019650505050505050600060405180830381600087803b15801561074557600080fd5b505af1158015610759573d6000803e3d6000fd5b505050506040513d6000823e3d601f19601f82011682018060405250602081101561078357600080fd5b81019080805160405193929190846401000000008211156107a357600080fd5b838201915060208201858111156107b957600080fd5b82518660208202830111640100000000821117156107d657600080fd5b8083526020830192505050908051906020019060200280838360005b8381101561080d5780820151818401526020810190506107f2565b50505050905001604052505050505050505050565b600047905090565b6000809054906101000a900473ffffffffffffffffffffffffffffffffffffffff1681565b60606000809054906101000a900473ffffffffffffffffffffffffffffffffffffffff1673ffffffffffffffffffffffffffffffffffffffff1663d06ca61f8461089885610e24565b6040518363ffffffff1660e01b81526004018083815260200180602001828103825283818151815260200191508051906020019060200280838360005b838110156108f05780820151818401526020810190506108d5565b50505050905001935050505060006040518083038186803b15801561091457600080fd5b505afa158015610928573d6000803e3d6000fd5b505050506040513d6000823e3d601f19601f82011682018060405250602081101561095257600080fd5b810190808051604051939291908464010000000082111561097257600080fd5b8382019150602082018581111561098857600080fd5b82518660208202830111640100000000821117156109a557600080fd5b8083526020830192505050908051906020019060200280838360005b838110156109dc5780820151818401526020810190506109c1565b50505050905001604052505050905092915050565b6000600f420190506000809054906101000a900473ffffffffffffffffffffffffffffffffffffffff1673ffffffffffffffffffffffffffffffffffffffff1663fb3bdb418386610a4187610c9d565b30866040518663ffffffff1660e01b815260040180858152602001806020018473ffffffffffffffffffffffffffffffffffffffff1673ffffffffffffffffffffffffffffffffffffffff168152602001838152602001828103825285818151815260200191508051906020019060200280838360005b83811015610ad3578082015181840152602081019050610ab8565b50505050905001955050505050506000604051808303818588803b158015610afa57600080fd5b505af1158015610b0e573d6000803e3d6000fd5b50505050506040513d6000823e3d601f19601f820116820180604052506020811015610b3957600080fd5b8101908080516040519392919084640100000000821115610b5957600080fd5b83820191506020820185811115610b6f57600080fd5b8251866020820283011164010000000082111715610b8c57600080fd5b8083526020830192505050908051906020019060200280838360005b83811015610bc3578082015181840152602081019050610ba8565b505050509050016040525050505050505050565b6000808290508073ffffffffffffffffffffffffffffffffffffffff166370a08231306040518263ffffffff1660e01b8152600401808273ffffffffffffffffffffffffffffffffffffffff1673ffffffffffffffffffffffffffffffffffffffff16815260200191505060206040518083038186803b158015610c5a57600080fd5b505afa158015610c6e573d6000803e3d6000fd5b505050506040513d6020811015610c8457600080fd5b8101908080519060200190929190505050915050919050565b606080600267ffffffffffffffff81118015610cb857600080fd5b50604051908082528060200260200182016040528015610ce75781602001602082028036833780820191505090505b5090506000809054906101000a900473ffffffffffffffffffffffffffffffffffffffff1673ffffffffffffffffffffffffffffffffffffffff1663ad5c46486040518163ffffffff1660e01b815260040160206040518083038186803b158015610d5157600080fd5b505afa158015610d65573d6000803e3d6000fd5b505050506040513d6020811015610d7b57600080fd5b810190808051906020019092919050505081600081518110610d9957fe5b602002602001019073ffffffffffffffffffffffffffffffffffffffff16908173ffffffffffffffffffffffffffffffffffffffff16815250508281600181518110610de157fe5b602002602001019073ffffffffffffffffffffffffffffffffffffffff16908173ffffffffffffffffffffffffffffffffffffffff168152505080915050919050565b606080600267ffffffffffffffff81118015610e3f57600080fd5b50604051908082528060200260200182016040528015610e6e5781602001602082028036833780820191505090505b5090508281600081518110610e7f57fe5b602002602001019073ffffffffffffffffffffffffffffffffffffffff16908173ffffffffffffffffffffffffffffffffffffffff16815250506000809054906101000a900473ffffffffffffffffffffffffffffffffffffffff1673ffffffffffffffffffffffffffffffffffffffff1663ad5c46486040518163ffffffff1660e01b815260040160206040518083038186803b158015610f2057600080fd5b505afa158015610f34573d6000803e3d6000fd5b505050506040513d6020811015610f4a57600080fd5b810190808051906020019092919050505081600181518110610f6857fe5b602002602001019073ffffffffffffffffffffffffffffffffffffffff16908173ffffffffffffffffffffffffffffffffffffffff16815250508091505091905056fea264697066735822122085d1f517f013e64011b278de6efb729bce20b4f7f3ac58bb8ab27444d578329264736f6c63430006060033",
  "source": "pragma solidity ^0.6.6;\n\nimport \"contracts/uniswap/IUniswapV2Router02.sol\";\nimport \"openzeppelin-solidity/contracts/token/ERC20/IERC20.sol\";\n\ncontract UniswapExample {\n  address internal constant UNISWAP_ROUTER_ADDRESS = 0x7a250d5630B4cF539739dF2C5dAcb4c659F2488D ; //kovan\n\n  IUniswapV2Router02 public uniswapRouter;\n\n  constructor() public {\n    uniswapRouter = IUniswapV2Router02(UNISWAP_ROUTER_ADDRESS);\n  }\n\n  function convertEthToToken(uint tokenAmount,address tokenAdd,uint ethAmount) public {\n\n     uint deadline1 = block.timestamp + 15; // using 'now' for convenience, for mainnet pass deadline from frontend!\n     uniswapRouter.swapETHForExactTokens{ value: ethAmount }(tokenAmount, getPathForETHtoToken(tokenAdd), address(this), deadline1);\n\n }\n\n  function convertTokenToEth(uint ethAmount,uint tokAmount,   address tokenAdd ) public {\n\n        uint deadline2 = block.timestamp + 30;\n       \n        IERC20 tok = IERC20(tokenAdd);\n       \n        require(tok.approve(address(uniswapRouter),tokAmount),\"Approve failed\");\n   \n        uniswapRouter.swapExactTokensForETH(tokAmount,ethAmount, getPathForTokentoETH(tokenAdd), address(this), deadline2);\n\n      }\n\n\n  function getEstimatedETHforToken(uint tokAmount , address tokenAdd) public view returns (uint[] memory) {\n    return uniswapRouter.getAmountsOut(tokAmount, getPathForETHtoToken(tokenAdd));\n  }\n \n  function getEstimatedTokenforEth(uint tokAmount , address tokenAdd) public view returns (uint[] memory) {\n    return uniswapRouter.getAmountsOut(tokAmount, getPathForTokentoETH(tokenAdd));\n  }\n\n\n  function getPathForETHtoToken(address tokenAdd) private view returns (address[] memory) {\n    address[] memory path = new address[](2);\n    path[0] = uniswapRouter.WETH();\n    path[1] = tokenAdd;\n\n    return path;\n  }\n\n  function getPathForTokentoETH(address tokenAdd) private view returns (address[] memory) {\n    address[] memory path = new address[](2);\n    path[0] = tokenAdd;\n    path[1] = uniswapRouter.WETH();\n\n    return path;\n  }\n \n \n  function getBalance(address token ) public view returns (uint ) {\n    IERC20 tok = IERC20(token);\n    return tok.balanceOf(address(this));\n  }\n \n function getEthBalance() public view returns (uint ) {\n        return address(this).balance;\n\n  }\n \n\n}\n",
  "sourcePath": "contracts/uniswap.sol",
  "compiler": {
    "name": "solc",
    "version": "0.6.6+commit.6c089d02.Emscripten.clang"
  },
  "schemaVersion": "3.0.23",
  "updatedAt": "2021-01-08T08:09:07.203Z",
  "devdoc": {
    "methods": {}
  },
  "userdoc": {
    "methods": {}
  }
}